{
  "_format": "hh3-artifact-1",
  "contractName": "AaveStrategy",
  "sourceName": "contracts/strategies/AaveStrategy.sol",
  "abi": [
    {
      "inputs": [
        {
          "internalType": "address",
          "name": "_vault",
          "type": "address"
        },
        {
          "internalType": "address",
          "name": "_aavePool",
          "type": "address"
        },
        {
          "internalType": "address",
          "name": "_aWETH",
          "type": "address"
        },
        {
          "internalType": "address",
          "name": "_wethAddress",
          "type": "address"
        }
      ],
      "stateMutability": "nonpayable",
      "type": "constructor"
    },
    {
      "anonymous": false,
      "inputs": [
        {
          "indexed": true,
          "internalType": "address",
          "name": "from",
          "type": "address"
        },
        {
          "indexed": false,
          "internalType": "uint256",
          "name": "amount",
          "type": "uint256"
        }
      ],
      "name": "Invested",
      "type": "event"
    },
    {
      "anonymous": false,
      "inputs": [
        {
          "indexed": true,
          "internalType": "address",
          "name": "from",
          "type": "address"
        },
        {
          "indexed": false,
          "internalType": "uint256",
          "name": "amount",
          "type": "uint256"
        }
      ],
      "name": "InvestedToAave",
      "type": "event"
    },
    {
      "anonymous": false,
      "inputs": [
        {
          "indexed": true,
          "internalType": "address",
          "name": "to",
          "type": "address"
        },
        {
          "indexed": false,
          "internalType": "uint256",
          "name": "amount",
          "type": "uint256"
        }
      ],
      "name": "Withdrawn",
      "type": "event"
    },
    {
      "anonymous": false,
      "inputs": [
        {
          "indexed": true,
          "internalType": "address",
          "name": "to",
          "type": "address"
        },
        {
          "indexed": false,
          "internalType": "uint256",
          "name": "amount",
          "type": "uint256"
        }
      ],
      "name": "WithdrawnFromAave",
      "type": "event"
    },
    {
      "anonymous": false,
      "inputs": [
        {
          "indexed": true,
          "internalType": "address",
          "name": "to",
          "type": "address"
        },
        {
          "indexed": false,
          "internalType": "uint256",
          "name": "amount",
          "type": "uint256"
        }
      ],
      "name": "YieldHarvested",
      "type": "event"
    },
    {
      "anonymous": false,
      "inputs": [
        {
          "indexed": true,
          "internalType": "address",
          "name": "vault",
          "type": "address"
        },
        {
          "indexed": false,
          "internalType": "uint256",
          "name": "amount",
          "type": "uint256"
        }
      ],
      "name": "YieldHarvestedToVault",
      "type": "event"
    },
    {
      "inputs": [],
      "name": "WETH",
      "outputs": [
        {
          "internalType": "contract IWETH",
          "name": "",
          "type": "address"
        }
      ],
      "stateMutability": "view",
      "type": "function"
    },
    {
      "inputs": [],
      "name": "aWETH",
      "outputs": [
        {
          "internalType": "contract IERC20",
          "name": "",
          "type": "address"
        }
      ],
      "stateMutability": "view",
      "type": "function"
    },
    {
      "inputs": [],
      "name": "aavePool",
      "outputs": [
        {
          "internalType": "contract IPool",
          "name": "",
          "type": "address"
        }
      ],
      "stateMutability": "view",
      "type": "function"
    },
    {
      "inputs": [],
      "name": "getAPY",
      "outputs": [
        {
          "internalType": "uint256",
          "name": "",
          "type": "uint256"
        }
      ],
      "stateMutability": "view",
      "type": "function"
    },
    {
      "inputs": [],
      "name": "getBalance",
      "outputs": [
        {
          "internalType": "uint256",
          "name": "",
          "type": "uint256"
        }
      ],
      "stateMutability": "view",
      "type": "function"
    },
    {
      "inputs": [],
      "name": "getETHPerAWETH",
      "outputs": [
        {
          "internalType": "uint256",
          "name": "",
          "type": "uint256"
        }
      ],
      "stateMutability": "view",
      "type": "function"
    },
    {
      "inputs": [],
      "name": "getHarvestableYield",
      "outputs": [
        {
          "internalType": "uint256",
          "name": "",
          "type": "uint256"
        }
      ],
      "stateMutability": "view",
      "type": "function"
    },
    {
      "inputs": [],
      "name": "getStrategyInfo",
      "outputs": [
        {
          "internalType": "uint256",
          "name": "principalETH",
          "type": "uint256"
        },
        {
          "internalType": "uint256",
          "name": "currentValueETH",
          "type": "uint256"
        },
        {
          "internalType": "uint256",
          "name": "harvestableYieldETH",
          "type": "uint256"
        },
        {
          "internalType": "uint256",
          "name": "aWETHBalance",
          "type": "uint256"
        }
      ],
      "stateMutability": "view",
      "type": "function"
    },
    {
      "inputs": [],
      "name": "harvestYield",
      "outputs": [
        {
          "internalType": "uint256",
          "name": "",
          "type": "uint256"
        }
      ],
      "stateMutability": "nonpayable",
      "type": "function"
    },
    {
      "inputs": [],
      "name": "invest",
      "outputs": [],
      "stateMutability": "payable",
      "type": "function"
    },
    {
      "inputs": [],
      "name": "name",
      "outputs": [
        {
          "internalType": "string",
          "name": "",
          "type": "string"
        }
      ],
      "stateMutability": "view",
      "type": "function"
    },
    {
      "inputs": [],
      "name": "riskMultiplier",
      "outputs": [
        {
          "internalType": "uint256",
          "name": "",
          "type": "uint256"
        }
      ],
      "stateMutability": "pure",
      "type": "function"
    },
    {
      "inputs": [],
      "name": "totalPrincipalETH",
      "outputs": [
        {
          "internalType": "uint256",
          "name": "",
          "type": "uint256"
        }
      ],
      "stateMutability": "view",
      "type": "function"
    },
    {
      "inputs": [],
      "name": "vault",
      "outputs": [
        {
          "internalType": "address",
          "name": "",
          "type": "address"
        }
      ],
      "stateMutability": "view",
      "type": "function"
    },
    {
      "inputs": [],
      "name": "wethAddress",
      "outputs": [
        {
          "internalType": "address",
          "name": "",
          "type": "address"
        }
      ],
      "stateMutability": "view",
      "type": "function"
    },
    {
      "inputs": [
        {
          "internalType": "uint256",
          "name": "amount",
          "type": "uint256"
        }
      ],
      "name": "withdraw",
      "outputs": [
        {
          "internalType": "uint256",
          "name": "",
          "type": "uint256"
        }
      ],
      "stateMutability": "nonpayable",
      "type": "function"
    },
    {
      "stateMutability": "payable",
      "type": "receive"
    }
  ],
  "bytecode": "0x61010080604052346102275760808161156d8038038091610020828561037d565b83398101031261022757610033816103a0565b61003f602083016103a0565b916100586060610051604084016103a0565b92016103a0565b60408051919491908101906001600160401b038211818310176103695760209160405260118152019270416176652045544820537472617465677960781b845260018060a01b03168060018060a01b03195f5416175f55600154600181811c9116801561035f575b602082101461034b57601f8111610303575b5092516001600160781b031916602217600155602092156102d1576001600160a01b03169081156102a0576001600160a01b031692831561026e576001600160a01b03811693841561023d57825f9592604492869560805260a0528360c05260e052604051958693849263095ea7b360e01b84526004840152811960248401525af18015610232576101fb575b6040516111b890816103b58239608051818181610158015281816102f20152818161051f015281816105c3015281816108ba0152610fd7015260a0518181816106500152818161071f0152610c85015260c05181818161023d0152818161057e015281816108fb0152611018015260e051818181610125015281816102a7015281816104ec015281816107bb0152818161087a0152610f980152f35b81813d831161022b575b61020f818361037d565b81010312610227575180151503610227575f8061015f565b5f80fd5b503d610205565b6040513d5f823e3d90fd5b60405162461bcd60e51b81526004810185905260096024820152680f4cae4de40ae8aa8960bb1b6044820152606490fd5b60405162461bcd60e51b815260048101849052600a6024820152690f4cae4de40c2ae8aa8960b31b6044820152606490fd5b60405162461bcd60e51b81526004810184905260096024820152681e995c9bc81c1bdbdb60ba1b6044820152606490fd5b60405162461bcd60e51b815260048101849052600a6024820152691e995c9bc81d985d5b1d60b21b6044820152606490fd5b60015f52601f0160051c7fb10e2d527612073b26eecdfd717e6a320cf44b4afac2b0732d9fcbe2b7fa0cf6908101905b81811061034057506100d2565b5f8155600101610333565b634e487b7160e01b5f52602260045260245ffd5b90607f16906100c0565b634e487b7160e01b5f52604160045260245ffd5b601f909101601f19168101906001600160401b0382119082101761036957604052565b51906001600160a01b03821682036102275756fe608080604052600436101561001c575b50361561001a575f80fd5b005b5f905f3560e01c90816306fdde0314610b1a5750806312065fe014610b005780632e1a7d4d1461080757806344519e0f146107ea5780634f0e0ef3146107a557806357ac34d21461078757806369edb4571461074e5780636d2a583a146107095780639613092d146105f2578063a03e4bc3146105ad578063ad5c464814610568578063d2cbf7ad146104c4578063e8b5e51f14610214578063e8d991d1146101dc578063fafec96b146100fd5763fbfa77cf0361000f57346100fa57806003193601126100fa57546040516001600160a01b039091168152602090f35b80fd5b50346100fa57806003193601126100fa576040516335ea6a7560e01b81526001600160a01b037f0000000000000000000000000000000000000000000000000000000000000000811660048301526101e090829060249082907f0000000000000000000000000000000000000000000000000000000000000000165afa9182156101d0576020926001600160801b03928492916101a1575b50015116604051908152f35b6101c391506101e03d81116101c9575b6101bb8183610c34565b810190610d66565b5f610195565b503d6101b1565b604051903d90823e3d90fd5b50346100fa57806003193601126100fa5754610202906001600160a01b03163314610cef565b602061020c610f54565b604051908152f35b50806003193601126100fa5761023460018060a01b038254163314610cef565b341561049457807f00000000000000000000000000000000000000000000000000000000000000006001600160a01b0316803b15610491578160049160405192838092630d0e30db60e41b825234905af180156103f45761047c575b50506040516370a0823160e01b81523060048201527f00000000000000000000000000000000000000000000000000000000000000006001600160a01b031690602081602481855afa90811561047157839161043b575b5034116104035781907f00000000000000000000000000000000000000000000000000000000000000006001600160a01b031690813b156103ff57829160848392604051948593849263617ba03760e01b845260048401523460248401523060448401528160648401525af180156103f4576103df575b50506002543481018091116103cb576002556040513481527f64c90c15dcd1c81fc58eb7abd9288f4c38fdb0f746b94f1f17db88665bec0d6660203392a26040513481527fc3f75dfc78f6efac88ad5abb5e606276b903647d97b2a62a1ef89840a658bbc360203392a280f35b634e487b7160e01b82526011600452602482fd5b816103e991610c34565b6100fa57805f61035e565b6040513d84823e3d90fd5b5050fd5b60405162461bcd60e51b815260206004820152601060248201526f15d15512081ddc985c0819985a5b195960821b6044820152606490fd5b90506020813d602011610469575b8161045660209383610c34565b8101031261046557515f6102e7565b5f80fd5b3d9150610449565b6040513d85823e3d90fd5b8161048691610c34565b6100fa57805f610290565b50fd5b60405162461bcd60e51b81526020600482015260086024820152670b4cae4de408aa8960c31b6044820152606490fd5b50346100fa57806003193601126100fa576040516335ea6a7560e01b81526001600160a01b037f0000000000000000000000000000000000000000000000000000000000000000811660048301526101e090829060249082907f0000000000000000000000000000000000000000000000000000000000000000165afa9081156103f4576001600160801b0391604091602094916101a15750015116604051908152f35b50346100fa57806003193601126100fa576040517f00000000000000000000000000000000000000000000000000000000000000006001600160a01b03168152602090f35b50346100fa57806003193601126100fa576040517f00000000000000000000000000000000000000000000000000000000000000006001600160a01b03168152602090f35b50346100fa57806003193601126100fa5760025461060e610c6a565b916040516369edb45760e01b8152602081600481305afa9081156103f45782916106d7575b506040516370a0823160e01b8152306004820152936020856024817f00000000000000000000000000000000000000000000000000000000000000006001600160a01b03165afa9283156101d057926106a2575b60809450604051938452602084015260408301526060820152f35b91506020843d6020116106cf575b816106bd60209383610c34565b81010312610465576080935191610687565b3d91506106b0565b90506020813d602011610701575b816106f260209383610c34565b8101031261046557515f610633565b3d91506106e5565b50346100fa57806003193601126100fa576040517f00000000000000000000000000000000000000000000000000000000000000006001600160a01b03168152602090f35b50346100fa57806003193601126100fa5760209061076a610c6a565b60025490818111156107805761020c9250610d31565b505061020c565b50346100fa57806003193601126100fa576020600254604051908152f35b50346100fa57806003193601126100fa576040517f00000000000000000000000000000000000000000000000000000000000000006001600160a01b03168152602090f35b50346100fa57806003193601126100fa5760206040516127108152f35b50346104655760203660031901126104655760043561083060018060a01b035f54163314610cef565b8015610acd5761083e610c6a565b8015610a9d57600254908183028381048303610a895704818110610a785750505f6002555b604051631a4ca37b60e21b81526001600160a01b037f00000000000000000000000000000000000000000000000000000000000000001660048201526024810182905230604482015290602082806064810103815f7f00000000000000000000000000000000000000000000000000000000000000006001600160a01b03165af19182156109f4575f92610a44575b5081106109ff577f00000000000000000000000000000000000000000000000000000000000000006001600160a01b031691823b15610465575f8093602460405180968193632e1a7d4d60e01b83528760048401525af19283156109f4576020936109e1575b5061097b818080808660018060a01b038254165af1610975610ec9565b50610f08565b60018060a01b039054167fdf67f60de178af7df2d3670e7e7f4d97b8933cc7636022bdc016c2ecf4e0e97d83604051848152a26040518181527f7084f5476618d8e60b11ef0d7d3f06914655adb8793e28ff7f018d4c76d505d5833392a2604051908152f35b6109ed91505f90610c34565b5f5f610958565b6040513d5f823e3d90fd5b60405162461bcd60e51b815260206004820152601760248201527f416176652077697468647261772073686f727466616c6c0000000000000000006044820152606490fd5b9091506020813d602011610a70575b81610a6060209383610c34565b810103126104655751905f6108f2565b3d9150610a53565b610a8191610d31565b600255610863565b634e487b7160e01b5f52601160045260245ffd5b60405162461bcd60e51b81526020600482015260086024820152674e6f2066756e647360c01b6044820152606490fd5b60405162461bcd60e51b815260206004820152600b60248201526a16995c9bc8185b5bdd5b9d60aa1b6044820152606490fd5b34610465575f36600319011261046557602061020c610c6a565b34610465575f366003190112610465575f90600154918260011c60018416938415610c2a575b602082108514610c16578184526020840194908115610bfb5750600114610b9d575b5090610b72816040930382610c34565b8151928391602083525180918160208501528484015e5f828201840152601f01601f19168101030190f35b91905060015f527fb10e2d527612073b26eecdfd717e6a320cf44b4afac2b0732d9fcbe2b7fa0cf6915f905b808210610be157509091508101602001610b72610b62565b919260018160209254838588010152019101909291610bc9565b60ff1916855250151560051b82016020019050610b72610b62565b634e487b7160e01b5f52602260045260245ffd5b90607f1690610b40565b90601f8019910116810190811067ffffffffffffffff821117610c5657604052565b634e487b7160e01b5f52604160045260245ffd5b6040516370a0823160e01b81523060048201526020816024817f00000000000000000000000000000000000000000000000000000000000000006001600160a01b03165afa9081156109f4575f91610cc0575090565b90506020813d602011610ce7575b81610cdb60209383610c34565b81010312610465575190565b3d9150610cce565b15610cf657565b60405162461bcd60e51b815260206004820152601360248201527213db9b1e481d985d5b1d0818d85b8818d85b1b606a1b6044820152606490fd5b91908203918211610a8957565b51906001600160801b038216820361046557565b51906001600160a01b038216820361046557565b809103906101e0821261046557604051916101e083019083821067ffffffffffffffff831117610c565760209160405212610465576040516020810181811067ffffffffffffffff821117610c5657604052815181528252610dca60208201610d3e565b6020830152610ddb60408201610d3e565b6040830152610dec60608201610d3e565b6060830152610dfd60808201610d3e565b6080830152610e0e60a08201610d3e565b60a083015260c081015164ffffffffff811681036104655760c083015260e081015161ffff8116810361046557610ec0916101c09160e0850152610e556101008201610d52565b610100850152610e686101208201610d52565b610120850152610e7b6101408201610d52565b610140850152610e8e6101608201610d52565b610160850152610ea16101808201610d3e565b610180850152610eb46101a08201610d3e565b6101a085015201610d3e565b6101c082015290565b3d15610f03573d9067ffffffffffffffff8211610c565760405191610ef8601f8201601f191660200184610c34565b82523d5f602084013e565b606090565b15610f0f57565b60405162461bcd60e51b815260206004820152601c60248201527f455448207472616e7366657220746f207661756c74206661696c6564000000006044820152606490fd5b6040516369edb45760e01b8152602081600481305afa9081156109f4575f905f9261114e575b50811561114857604051631a4ca37b60e21b81526001600160a01b037f000000000000000000000000000000000000000000000000000000000000000016600482015260248101839052306044820152602081806064810103815f7f00000000000000000000000000000000000000000000000000000000000000006001600160a01b03165af180156109f45783915f91611113575b50106110d7577f00000000000000000000000000000000000000000000000000000000000000006001600160a01b0316803b15610465575f8091602460405180948193632e1a7d4d60e01b83528860048401525af180156109f4576110c4575b5061108d818080808660018060a01b038254165af1610975610ec9565b60018060a01b039054167fe826e84a1d5d4bb365d983434623937bf68864213004b4a0635655c5f479d28c6020604051848152a290565b6110d091505f90610c34565b5f5f611070565b60405162461bcd60e51b815260206004820152601460248201527310585d99481dda5d1a191c985dc819985a5b195960621b6044820152606490fd5b9150506020813d602011611140575b8161112f60209383610c34565b81010312610465578290515f611010565b3d9150611122565b50505f90565b9091506020813d60201161117a575b8161116a60209383610c34565b810103126104655751905f610f7a565b3d915061115d56fea2646970667358221220c7f539ec74b9791aa2ccb3bc8bf32bb77c19adfa3728ff6fcb80866487dba5ab64736f6c634300081c0033",
  "linkReferences": {},
  "deployedLinkReferences": {},
  "immutableReferences": {
    "13908": [
      {
        "length": 32,
        "start": 344
      },
      {
        "length": 32,
        "start": 754
      },
      {
        "length": 32,
        "start": 1311
      },
      {
        "length": 32,
        "start": 1475
      },
      {
        "length": 32,
        "start": 2234
      },
      {
        "length": 32,
        "start": 4055
      }
    ],
    "13911": [
      {
        "length": 32,
        "start": 1616
      },
      {
        "length": 32,
        "start": 1823
      },
      {
        "length": 32,
        "start": 3205
      }
    ],
    "13914": [
      {
        "length": 32,
        "start": 573
      },
      {
        "length": 32,
        "start": 1406
      },
      {
        "length": 32,
        "start": 2299
      },
      {
        "length": 32,
        "start": 4120
      }
    ],
    "13916": [
      {
        "length": 32,
        "start": 293
      },
      {
        "length": 32,
        "start": 679
      },
      {
        "length": 32,
        "start": 1260
      },
      {
        "length": 32,
        "start": 1979
      },
      {
        "length": 32,
        "start": 2170
      },
      {
        "length": 32,
        "start": 3992
      }
    ]
  },
  "inputSourceName": "project/contracts/strategies/AaveStrategy.sol",
  "buildInfoId": "solc-0_8_28-e3f5b2e19080d76ce25cb914cc938e032906e967"
}