{
  "_format": "hh3-artifact-1",
  "contractName": "GameEngine",
  "sourceName": "contracts/GameEngine.sol",
  "abi": [
    {
      "inputs": [],
      "stateMutability": "nonpayable",
      "type": "constructor"
    },
    {
      "inputs": [
        {
          "internalType": "address",
          "name": "owner",
          "type": "address"
        }
      ],
      "name": "OwnableInvalidOwner",
      "type": "error"
    },
    {
      "inputs": [
        {
          "internalType": "address",
          "name": "account",
          "type": "address"
        }
      ],
      "name": "OwnableUnauthorizedAccount",
      "type": "error"
    },
    {
      "anonymous": false,
      "inputs": [
        {
          "indexed": false,
          "internalType": "uint256",
          "name": "newHouseEdge",
          "type": "uint256"
        }
      ],
      "name": "HouseEdgeUpdated",
      "type": "event"
    },
    {
      "anonymous": false,
      "inputs": [
        {
          "indexed": true,
          "internalType": "address",
          "name": "zenbuLoot",
          "type": "address"
        }
      ],
      "name": "Initialized",
      "type": "event"
    },
    {
      "anonymous": false,
      "inputs": [
        {
          "indexed": true,
          "internalType": "address",
          "name": "previousOwner",
          "type": "address"
        },
        {
          "indexed": true,
          "internalType": "address",
          "name": "newOwner",
          "type": "address"
        }
      ],
      "name": "OwnershipTransferred",
      "type": "event"
    },
    {
      "anonymous": false,
      "inputs": [
        {
          "indexed": true,
          "internalType": "address",
          "name": "newZenbuLoot",
          "type": "address"
        }
      ],
      "name": "ZenbuLootUpdated",
      "type": "event"
    },
    {
      "inputs": [],
      "name": "PRECISION",
      "outputs": [
        {
          "internalType": "uint256",
          "name": "",
          "type": "uint256"
        }
      ],
      "stateMutability": "view",
      "type": "function"
    },
    {
      "inputs": [],
      "name": "houseEdge",
      "outputs": [
        {
          "internalType": "uint256",
          "name": "",
          "type": "uint256"
        }
      ],
      "stateMutability": "view",
      "type": "function"
    },
    {
      "inputs": [
        {
          "internalType": "address",
          "name": "_zenbuLoot",
          "type": "address"
        }
      ],
      "name": "initialize",
      "outputs": [],
      "stateMutability": "nonpayable",
      "type": "function"
    },
    {
      "inputs": [],
      "name": "initialized",
      "outputs": [
        {
          "internalType": "bool",
          "name": "",
          "type": "bool"
        }
      ],
      "stateMutability": "view",
      "type": "function"
    },
    {
      "inputs": [],
      "name": "owner",
      "outputs": [
        {
          "internalType": "address",
          "name": "",
          "type": "address"
        }
      ],
      "stateMutability": "view",
      "type": "function"
    },
    {
      "inputs": [
        {
          "internalType": "uint16",
          "name": "chancePercent",
          "type": "uint16"
        },
        {
          "internalType": "uint256",
          "name": "betAmount",
          "type": "uint256"
        }
      ],
      "name": "pickAChance",
      "outputs": [
        {
          "components": [
            {
              "internalType": "bool",
              "name": "win",
              "type": "bool"
            },
            {
              "internalType": "uint256",
              "name": "zknReward",
              "type": "uint256"
            },
            {
              "internalType": "uint256",
              "name": "droppedItemTypeId",
              "type": "uint256"
            }
          ],
          "internalType": "struct GameResult",
          "name": "",
          "type": "tuple"
        }
      ],
      "stateMutability": "view",
      "type": "function"
    },
    {
      "inputs": [],
      "name": "renounceOwnership",
      "outputs": [],
      "stateMutability": "nonpayable",
      "type": "function"
    },
    {
      "inputs": [
        {
          "internalType": "uint256",
          "name": "newHouseEdge",
          "type": "uint256"
        }
      ],
      "name": "setHouseEdge",
      "outputs": [],
      "stateMutability": "nonpayable",
      "type": "function"
    },
    {
      "inputs": [
        {
          "internalType": "address",
          "name": "newOwner",
          "type": "address"
        }
      ],
      "name": "transferOwnership",
      "outputs": [],
      "stateMutability": "nonpayable",
      "type": "function"
    },
    {
      "inputs": [],
      "name": "zenbuLoot",
      "outputs": [
        {
          "internalType": "address",
          "name": "",
          "type": "address"
        }
      ],
      "stateMutability": "view",
      "type": "function"
    }
  ],
  "bytecode": "0x6080806040523460835733156070575f8054336001600160a01b0319821681178355916001600160a01b03909116907f8be0079c531659141344cd1fd0a4f28419497f9722a3daafe3b4186f6b6457e09080a360646001556002805460ff60a01b1916905561074490816100888239f35b631e4fbdf760e01b5f525f60045260245ffd5b5f80fdfe6080806040526004361015610012575f80fd5b5f3560e01c908163158ef93e146106245750806327bf98e8146103f65780633dd4d3a8146103ce5780636cd0f102146102ba578063715018a6146102635780638da5cb5b1461023c578063aaf5eb6814610220578063c4d66de814610134578063d667dcd7146101175763f2fde38b1461008a575f80fd5b34610113576020366003190112610113576004356001600160a01b03811690819003610113576100b86106e8565b8015610100575f80546001600160a01b03198116831782556001600160a01b0316907f8be0079c531659141344cd1fd0a4f28419497f9722a3daafe3b4186f6b6457e09080a3005b631e4fbdf760e01b5f525f60045260245ffd5b5f80fd5b34610113575f366003190112610113576020600154604051908152f35b34610113576020366003190112610113576004356001600160a01b03811690819003610113576101626106e8565b60025460ff8160a01c166101e55781156101b1576001600160a81b0319168117600160a01b176002557f908408e307fc569b417f6cbec5d5a06f44a0a505ac0479b47d421a4b2fd6a1e65f80a2005b60405162461bcd60e51b815260206004820152600c60248201526b5a65726f206164647265737360a01b6044820152606490fd5b60405162461bcd60e51b8152602060048201526013602482015272105b1c9958591e481a5b9a5d1a585b1a5e9959606a1b6044820152606490fd5b34610113575f3660031901126101135760206040516127108152f35b34610113575f366003190112610113575f546040516001600160a01b039091168152602090f35b34610113575f3660031901126101135761027b6106e8565b5f80546001600160a01b0319811682556001600160a01b03167f8be0079c531659141344cd1fd0a4f28419497f9722a3daafe3b4186f6b6457e08280a3005b3461011357602036600319011261011357600254600435906001600160a01b03163303610398576101f4811161035d57600a8110610323576020817f5082c314f0d5d410c0175820fe02f58a21198fde20ddb6e65c96825cadab67a892600155604051908152a1005b60405162461bcd60e51b8152602060048201526012602482015271486f757365206564676520746f6f206c6f7760701b6044820152606490fd5b60405162461bcd60e51b8152602060048201526013602482015272090deeae6ca40cac8ceca40e8dede40d0d2ced606b1b6044820152606490fd5b60405162461bcd60e51b815260206004820152600e60248201526d139bdd08185d5d1a1bdc9a5e995960921b6044820152606490fd5b34610113575f366003190112610113576002546040516001600160a01b039091168152602090f35b346101135760403660031901126101135760043561ffff811680910361011357602435905f6040805161042881610646565b8281528260208201520152801590811590818092610619575b61044a90610662565b831592831593610459856106a7565b838061060e575b61046990610662565b60015461271003612710811161058f57808402908482041483171561058f57612710900480156105c95743156105c2575f19430143811161058f57905b6040519160208301904081524260408401524460608401523060601b60808401523360601b60948401526088835260c0830183811067ffffffffffffffff8211176105ae576127109261ffff91604052169251902006109485945f9561053b575b606087876040805161051881610646565b8381526020810192835201905f8252604051928352516020830152516040820152f35b6105579293949550806105a3575b61055290610662565b6106a7565b612710850294850461271014171561058f5761057b57606092048380808080610507565b634e487b7160e01b5f52601260045260245ffd5b634e487b7160e01b5f52601160045260245ffd5b506127108510610549565b634e487b7160e01b5f52604160045260245ffd5b43906104a6565b60405162461bcd60e51b815260206004820152601c60248201527f41646a75737465642070726f626162696c69747920746f6f206c6f77000000006044820152606490fd5b506127108310610460565b506127108110610441565b34610113575f3660031901126101135760209060ff60025460a01c1615158152f35b6060810190811067ffffffffffffffff8211176105ae57604052565b1561066957565b60405162461bcd60e51b8152602060048201526016602482015275125b9d985b1a590818da185b98d9481c195c98d95b9d60521b6044820152606490fd5b156106ae57565b60405162461bcd60e51b8152602060048201526012602482015271125b9d985b1a590818995d08185b5bdd5b9d60721b6044820152606490fd5b5f546001600160a01b031633036106fb57565b63118cdaa760e01b5f523360045260245ffdfea26469706673582212207933c8c0b8a6b780457db97cee442c257643904fa009fe9f9f9d15e9a09990dc64736f6c634300081c0033",
  "linkReferences": {},
  "deployedLinkReferences": {},
  "immutableReferences": {},
  "inputSourceName": "project/contracts/GameEngine.sol",
  "buildInfoId": "solc-0_8_28-e3f5b2e19080d76ce25cb914cc938e032906e967"
}