{
  "_format": "hh3-artifact-1",
  "contractName": "OmamoriNFT",
  "sourceName": "contracts/OmamoriNFT.sol",
  "abi": [
    {
      "inputs": [],
      "stateMutability": "nonpayable",
      "type": "constructor"
    },
    {
      "inputs": [
        {
          "internalType": "address",
          "name": "sender",
          "type": "address"
        },
        {
          "internalType": "uint256",
          "name": "tokenId",
          "type": "uint256"
        },
        {
          "internalType": "address",
          "name": "owner",
          "type": "address"
        }
      ],
      "name": "ERC721IncorrectOwner",
      "type": "error"
    },
    {
      "inputs": [
        {
          "internalType": "address",
          "name": "operator",
          "type": "address"
        },
        {
          "internalType": "uint256",
          "name": "tokenId",
          "type": "uint256"
        }
      ],
      "name": "ERC721InsufficientApproval",
      "type": "error"
    },
    {
      "inputs": [
        {
          "internalType": "address",
          "name": "approver",
          "type": "address"
        }
      ],
      "name": "ERC721InvalidApprover",
      "type": "error"
    },
    {
      "inputs": [
        {
          "internalType": "address",
          "name": "operator",
          "type": "address"
        }
      ],
      "name": "ERC721InvalidOperator",
      "type": "error"
    },
    {
      "inputs": [
        {
          "internalType": "address",
          "name": "owner",
          "type": "address"
        }
      ],
      "name": "ERC721InvalidOwner",
      "type": "error"
    },
    {
      "inputs": [
        {
          "internalType": "address",
          "name": "receiver",
          "type": "address"
        }
      ],
      "name": "ERC721InvalidReceiver",
      "type": "error"
    },
    {
      "inputs": [
        {
          "internalType": "address",
          "name": "sender",
          "type": "address"
        }
      ],
      "name": "ERC721InvalidSender",
      "type": "error"
    },
    {
      "inputs": [
        {
          "internalType": "uint256",
          "name": "tokenId",
          "type": "uint256"
        }
      ],
      "name": "ERC721NonexistentToken",
      "type": "error"
    },
    {
      "inputs": [
        {
          "internalType": "address",
          "name": "owner",
          "type": "address"
        }
      ],
      "name": "OwnableInvalidOwner",
      "type": "error"
    },
    {
      "inputs": [
        {
          "internalType": "address",
          "name": "account",
          "type": "address"
        }
      ],
      "name": "OwnableUnauthorizedAccount",
      "type": "error"
    },
    {
      "inputs": [],
      "name": "ReentrancyGuardReentrantCall",
      "type": "error"
    },
    {
      "anonymous": false,
      "inputs": [
        {
          "indexed": true,
          "internalType": "address",
          "name": "owner",
          "type": "address"
        },
        {
          "indexed": true,
          "internalType": "address",
          "name": "approved",
          "type": "address"
        },
        {
          "indexed": true,
          "internalType": "uint256",
          "name": "tokenId",
          "type": "uint256"
        }
      ],
      "name": "Approval",
      "type": "event"
    },
    {
      "anonymous": false,
      "inputs": [
        {
          "indexed": true,
          "internalType": "address",
          "name": "owner",
          "type": "address"
        },
        {
          "indexed": true,
          "internalType": "address",
          "name": "operator",
          "type": "address"
        },
        {
          "indexed": false,
          "internalType": "bool",
          "name": "approved",
          "type": "bool"
        }
      ],
      "name": "ApprovalForAll",
      "type": "event"
    },
    {
      "anonymous": false,
      "inputs": [
        {
          "indexed": true,
          "internalType": "address",
          "name": "account",
          "type": "address"
        }
      ],
      "name": "AuthorizedAdded",
      "type": "event"
    },
    {
      "anonymous": false,
      "inputs": [
        {
          "indexed": true,
          "internalType": "address",
          "name": "account",
          "type": "address"
        }
      ],
      "name": "AuthorizedRemoved",
      "type": "event"
    },
    {
      "anonymous": false,
      "inputs": [
        {
          "indexed": true,
          "internalType": "uint256",
          "name": "tokenId",
          "type": "uint256"
        }
      ],
      "name": "ItemBurned",
      "type": "event"
    },
    {
      "anonymous": false,
      "inputs": [
        {
          "indexed": true,
          "internalType": "uint256",
          "name": "tokenId",
          "type": "uint256"
        },
        {
          "indexed": false,
          "internalType": "uint256",
          "name": "usesLeft",
          "type": "uint256"
        }
      ],
      "name": "ItemConsumed",
      "type": "event"
    },
    {
      "anonymous": false,
      "inputs": [
        {
          "indexed": true,
          "internalType": "uint256",
          "name": "typeId",
          "type": "uint256"
        },
        {
          "indexed": false,
          "internalType": "string",
          "name": "name",
          "type": "string"
        },
        {
          "indexed": false,
          "internalType": "uint256",
          "name": "price",
          "type": "uint256"
        },
        {
          "indexed": false,
          "internalType": "uint32",
          "name": "apr",
          "type": "uint32"
        },
        {
          "indexed": false,
          "internalType": "uint256",
          "name": "minLockDuration",
          "type": "uint256"
        },
        {
          "indexed": false,
          "internalType": "uint256",
          "name": "maxLockDuration",
          "type": "uint256"
        },
        {
          "indexed": false,
          "internalType": "bool",
          "name": "availableInShop",
          "type": "bool"
        }
      ],
      "name": "ItemTypeAdded",
      "type": "event"
    },
    {
      "anonymous": false,
      "inputs": [
        {
          "indexed": true,
          "internalType": "uint256",
          "name": "typeId",
          "type": "uint256"
        }
      ],
      "name": "ItemTypeExpired",
      "type": "event"
    },
    {
      "anonymous": false,
      "inputs": [
        {
          "indexed": true,
          "internalType": "uint256",
          "name": "typeId",
          "type": "uint256"
        }
      ],
      "name": "ItemTypeRetired",
      "type": "event"
    },
    {
      "anonymous": false,
      "inputs": [
        {
          "indexed": true,
          "internalType": "uint256",
          "name": "typeId",
          "type": "uint256"
        },
        {
          "indexed": false,
          "internalType": "bool",
          "name": "availableInShop",
          "type": "bool"
        }
      ],
      "name": "ItemTypeUpdated",
      "type": "event"
    },
    {
      "anonymous": false,
      "inputs": [
        {
          "indexed": true,
          "internalType": "uint256",
          "name": "tokenId",
          "type": "uint256"
        },
        {
          "indexed": true,
          "internalType": "uint256",
          "name": "typeId",
          "type": "uint256"
        },
        {
          "indexed": true,
          "internalType": "address",
          "name": "player",
          "type": "address"
        }
      ],
      "name": "MintedItem",
      "type": "event"
    },
    {
      "anonymous": false,
      "inputs": [
        {
          "indexed": true,
          "internalType": "address",
          "name": "previousOwner",
          "type": "address"
        },
        {
          "indexed": true,
          "internalType": "address",
          "name": "newOwner",
          "type": "address"
        }
      ],
      "name": "OwnershipTransferred",
      "type": "event"
    },
    {
      "anonymous": false,
      "inputs": [
        {
          "indexed": true,
          "internalType": "address",
          "name": "from",
          "type": "address"
        },
        {
          "indexed": true,
          "internalType": "address",
          "name": "to",
          "type": "address"
        },
        {
          "indexed": true,
          "internalType": "uint256",
          "name": "tokenId",
          "type": "uint256"
        }
      ],
      "name": "Transfer",
      "type": "event"
    },
    {
      "anonymous": false,
      "inputs": [
        {
          "indexed": true,
          "internalType": "address",
          "name": "from",
          "type": "address"
        },
        {
          "indexed": true,
          "internalType": "address",
          "name": "to",
          "type": "address"
        },
        {
          "indexed": true,
          "internalType": "uint256",
          "name": "tokenId",
          "type": "uint256"
        },
        {
          "indexed": false,
          "internalType": "uint256",
          "name": "typeId",
          "type": "uint256"
        }
      ],
      "name": "TransferWithData",
      "type": "event"
    },
    {
      "inputs": [
        {
          "internalType": "address",
          "name": "a",
          "type": "address"
        }
      ],
      "name": "addAuthorized",
      "outputs": [],
      "stateMutability": "nonpayable",
      "type": "function"
    },
    {
      "inputs": [
        {
          "components": [
            {
              "internalType": "string",
              "name": "name",
              "type": "string"
            },
            {
              "internalType": "uint16",
              "name": "defaultUses",
              "type": "uint16"
            },
            {
              "internalType": "string",
              "name": "imageURI",
              "type": "string"
            },
            {
              "internalType": "bool",
              "name": "retired",
              "type": "bool"
            },
            {
              "internalType": "bool",
              "name": "availableInShop",
              "type": "bool"
            },
            {
              "internalType": "uint256",
              "name": "expiresAt",
              "type": "uint256"
            },
            {
              "internalType": "uint256",
              "name": "minLockDuration",
              "type": "uint256"
            },
            {
              "internalType": "uint256",
              "name": "maxLockDuration",
              "type": "uint256"
            },
            {
              "internalType": "uint256",
              "name": "price",
              "type": "uint256"
            },
            {
              "internalType": "uint32",
              "name": "apr",
              "type": "uint32"
            },
            {
              "internalType": "uint256",
              "name": "minInvestment",
              "type": "uint256"
            },
            {
              "internalType": "uint256",
              "name": "maxInvestment",
              "type": "uint256"
            },
            {
              "internalType": "uint256",
              "name": "strategyId",
              "type": "uint256"
            }
          ],
          "internalType": "struct ItemType",
          "name": "item",
          "type": "tuple"
        }
      ],
      "name": "addItemType",
      "outputs": [
        {
          "internalType": "uint256",
          "name": "",
          "type": "uint256"
        }
      ],
      "stateMutability": "nonpayable",
      "type": "function"
    },
    {
      "inputs": [
        {
          "internalType": "address",
          "name": "to",
          "type": "address"
        },
        {
          "internalType": "uint256",
          "name": "tokenId",
          "type": "uint256"
        }
      ],
      "name": "approve",
      "outputs": [],
      "stateMutability": "nonpayable",
      "type": "function"
    },
    {
      "inputs": [
        {
          "internalType": "address",
          "name": "",
          "type": "address"
        }
      ],
      "name": "authorized",
      "outputs": [
        {
          "internalType": "bool",
          "name": "",
          "type": "bool"
        }
      ],
      "stateMutability": "view",
      "type": "function"
    },
    {
      "inputs": [
        {
          "internalType": "address",
          "name": "owner",
          "type": "address"
        }
      ],
      "name": "balanceOf",
      "outputs": [
        {
          "internalType": "uint256",
          "name": "",
          "type": "uint256"
        }
      ],
      "stateMutability": "view",
      "type": "function"
    },
    {
      "inputs": [
        {
          "internalType": "uint256",
          "name": "tokenId",
          "type": "uint256"
        }
      ],
      "name": "burn",
      "outputs": [],
      "stateMutability": "nonpayable",
      "type": "function"
    },
    {
      "inputs": [
        {
          "internalType": "uint256",
          "name": "tokenId",
          "type": "uint256"
        }
      ],
      "name": "consumeItem",
      "outputs": [],
      "stateMutability": "nonpayable",
      "type": "function"
    },
    {
      "inputs": [
        {
          "internalType": "uint256",
          "name": "tokenId",
          "type": "uint256"
        }
      ],
      "name": "getApproved",
      "outputs": [
        {
          "internalType": "address",
          "name": "",
          "type": "address"
        }
      ],
      "stateMutability": "view",
      "type": "function"
    },
    {
      "inputs": [
        {
          "internalType": "uint256",
          "name": "tokenId",
          "type": "uint256"
        }
      ],
      "name": "getItemInfo",
      "outputs": [
        {
          "components": [
            {
              "internalType": "uint256",
              "name": "typeId",
              "type": "uint256"
            },
            {
              "internalType": "uint16",
              "name": "usesLeft",
              "type": "uint16"
            },
            {
              "internalType": "uint256",
              "name": "expiresAt",
              "type": "uint256"
            },
            {
              "internalType": "bool",
              "name": "consumed",
              "type": "bool"
            }
          ],
          "internalType": "struct PlayerItem",
          "name": "",
          "type": "tuple"
        },
        {
          "components": [
            {
              "internalType": "string",
              "name": "name",
              "type": "string"
            },
            {
              "internalType": "uint16",
              "name": "defaultUses",
              "type": "uint16"
            },
            {
              "internalType": "string",
              "name": "imageURI",
              "type": "string"
            },
            {
              "internalType": "bool",
              "name": "retired",
              "type": "bool"
            },
            {
              "internalType": "bool",
              "name": "availableInShop",
              "type": "bool"
            },
            {
              "internalType": "uint256",
              "name": "expiresAt",
              "type": "uint256"
            },
            {
              "internalType": "uint256",
              "name": "minLockDuration",
              "type": "uint256"
            },
            {
              "internalType": "uint256",
              "name": "maxLockDuration",
              "type": "uint256"
            },
            {
              "internalType": "uint256",
              "name": "price",
              "type": "uint256"
            },
            {
              "internalType": "uint32",
              "name": "apr",
              "type": "uint32"
            },
            {
              "internalType": "uint256",
              "name": "minInvestment",
              "type": "uint256"
            },
            {
              "internalType": "uint256",
              "name": "maxInvestment",
              "type": "uint256"
            },
            {
              "internalType": "uint256",
              "name": "strategyId",
              "type": "uint256"
            }
          ],
          "internalType": "struct ItemType",
          "name": "",
          "type": "tuple"
        }
      ],
      "stateMutability": "view",
      "type": "function"
    },
    {
      "inputs": [
        {
          "internalType": "uint256",
          "name": "typeId",
          "type": "uint256"
        }
      ],
      "name": "getItemType",
      "outputs": [
        {
          "components": [
            {
              "internalType": "string",
              "name": "name",
              "type": "string"
            },
            {
              "internalType": "uint16",
              "name": "defaultUses",
              "type": "uint16"
            },
            {
              "internalType": "string",
              "name": "imageURI",
              "type": "string"
            },
            {
              "internalType": "bool",
              "name": "retired",
              "type": "bool"
            },
            {
              "internalType": "bool",
              "name": "availableInShop",
              "type": "bool"
            },
            {
              "internalType": "uint256",
              "name": "expiresAt",
              "type": "uint256"
            },
            {
              "internalType": "uint256",
              "name": "minLockDuration",
              "type": "uint256"
            },
            {
              "internalType": "uint256",
              "name": "maxLockDuration",
              "type": "uint256"
            },
            {
              "internalType": "uint256",
              "name": "price",
              "type": "uint256"
            },
            {
              "internalType": "uint32",
              "name": "apr",
              "type": "uint32"
            },
            {
              "internalType": "uint256",
              "name": "minInvestment",
              "type": "uint256"
            },
            {
              "internalType": "uint256",
              "name": "maxInvestment",
              "type": "uint256"
            },
            {
              "internalType": "uint256",
              "name": "strategyId",
              "type": "uint256"
            }
          ],
          "internalType": "struct ItemType",
          "name": "",
          "type": "tuple"
        }
      ],
      "stateMutability": "view",
      "type": "function"
    },
    {
      "inputs": [
        {
          "internalType": "address",
          "name": "owner",
          "type": "address"
        },
        {
          "internalType": "address",
          "name": "operator",
          "type": "address"
        }
      ],
      "name": "isApprovedForAll",
      "outputs": [
        {
          "internalType": "bool",
          "name": "",
          "type": "bool"
        }
      ],
      "stateMutability": "view",
      "type": "function"
    },
    {
      "inputs": [
        {
          "internalType": "uint256",
          "name": "typeId",
          "type": "uint256"
        }
      ],
      "name": "isItemAvailable",
      "outputs": [
        {
          "internalType": "bool",
          "name": "",
          "type": "bool"
        }
      ],
      "stateMutability": "view",
      "type": "function"
    },
    {
      "inputs": [
        {
          "internalType": "uint256",
          "name": "",
          "type": "uint256"
        }
      ],
      "name": "itemTypes",
      "outputs": [
        {
          "internalType": "string",
          "name": "name",
          "type": "string"
        },
        {
          "internalType": "uint16",
          "name": "defaultUses",
          "type": "uint16"
        },
        {
          "internalType": "string",
          "name": "imageURI",
          "type": "string"
        },
        {
          "internalType": "bool",
          "name": "retired",
          "type": "bool"
        },
        {
          "internalType": "bool",
          "name": "availableInShop",
          "type": "bool"
        },
        {
          "internalType": "uint256",
          "name": "expiresAt",
          "type": "uint256"
        },
        {
          "internalType": "uint256",
          "name": "minLockDuration",
          "type": "uint256"
        },
        {
          "internalType": "uint256",
          "name": "maxLockDuration",
          "type": "uint256"
        },
        {
          "internalType": "uint256",
          "name": "price",
          "type": "uint256"
        },
        {
          "internalType": "uint32",
          "name": "apr",
          "type": "uint32"
        },
        {
          "internalType": "uint256",
          "name": "minInvestment",
          "type": "uint256"
        },
        {
          "internalType": "uint256",
          "name": "maxInvestment",
          "type": "uint256"
        },
        {
          "internalType": "uint256",
          "name": "strategyId",
          "type": "uint256"
        }
      ],
      "stateMutability": "view",
      "type": "function"
    },
    {
      "inputs": [
        {
          "internalType": "address",
          "name": "player",
          "type": "address"
        },
        {
          "internalType": "uint256",
          "name": "typeId",
          "type": "uint256"
        }
      ],
      "name": "mintItem",
      "outputs": [
        {
          "internalType": "uint256",
          "name": "",
          "type": "uint256"
        }
      ],
      "stateMutability": "nonpayable",
      "type": "function"
    },
    {
      "inputs": [],
      "name": "name",
      "outputs": [
        {
          "internalType": "string",
          "name": "",
          "type": "string"
        }
      ],
      "stateMutability": "view",
      "type": "function"
    },
    {
      "inputs": [],
      "name": "nextTokenId",
      "outputs": [
        {
          "internalType": "uint256",
          "name": "",
          "type": "uint256"
        }
      ],
      "stateMutability": "view",
      "type": "function"
    },
    {
      "inputs": [],
      "name": "nextTypeId",
      "outputs": [
        {
          "internalType": "uint256",
          "name": "",
          "type": "uint256"
        }
      ],
      "stateMutability": "view",
      "type": "function"
    },
    {
      "inputs": [],
      "name": "owner",
      "outputs": [
        {
          "internalType": "address",
          "name": "",
          "type": "address"
        }
      ],
      "stateMutability": "view",
      "type": "function"
    },
    {
      "inputs": [
        {
          "internalType": "uint256",
          "name": "tokenId",
          "type": "uint256"
        }
      ],
      "name": "ownerOf",
      "outputs": [
        {
          "internalType": "address",
          "name": "",
          "type": "address"
        }
      ],
      "stateMutability": "view",
      "type": "function"
    },
    {
      "inputs": [
        {
          "internalType": "uint256",
          "name": "",
          "type": "uint256"
        }
      ],
      "name": "playerItems",
      "outputs": [
        {
          "internalType": "uint256",
          "name": "typeId",
          "type": "uint256"
        },
        {
          "internalType": "uint16",
          "name": "usesLeft",
          "type": "uint16"
        },
        {
          "internalType": "uint256",
          "name": "expiresAt",
          "type": "uint256"
        },
        {
          "internalType": "bool",
          "name": "consumed",
          "type": "bool"
        }
      ],
      "stateMutability": "view",
      "type": "function"
    },
    {
      "inputs": [
        {
          "internalType": "address",
          "name": "a",
          "type": "address"
        }
      ],
      "name": "removeAuthorized",
      "outputs": [],
      "stateMutability": "nonpayable",
      "type": "function"
    },
    {
      "inputs": [],
      "name": "renounceOwnership",
      "outputs": [],
      "stateMutability": "nonpayable",
      "type": "function"
    },
    {
      "inputs": [
        {
          "internalType": "uint256",
          "name": "typeId",
          "type": "uint256"
        }
      ],
      "name": "retireItemType",
      "outputs": [],
      "stateMutability": "nonpayable",
      "type": "function"
    },
    {
      "inputs": [
        {
          "internalType": "address",
          "name": "from",
          "type": "address"
        },
        {
          "internalType": "address",
          "name": "to",
          "type": "address"
        },
        {
          "internalType": "uint256",
          "name": "tokenId",
          "type": "uint256"
        }
      ],
      "name": "safeTransferFrom",
      "outputs": [],
      "stateMutability": "nonpayable",
      "type": "function"
    },
    {
      "inputs": [
        {
          "internalType": "address",
          "name": "from",
          "type": "address"
        },
        {
          "internalType": "address",
          "name": "to",
          "type": "address"
        },
        {
          "internalType": "uint256",
          "name": "tokenId",
          "type": "uint256"
        },
        {
          "internalType": "bytes",
          "name": "data",
          "type": "bytes"
        }
      ],
      "name": "safeTransferFrom",
      "outputs": [],
      "stateMutability": "nonpayable",
      "type": "function"
    },
    {
      "inputs": [
        {
          "internalType": "address",
          "name": "operator",
          "type": "address"
        },
        {
          "internalType": "bool",
          "name": "approved",
          "type": "bool"
        }
      ],
      "name": "setApprovalForAll",
      "outputs": [],
      "stateMutability": "nonpayable",
      "type": "function"
    },
    {
      "inputs": [
        {
          "internalType": "uint256",
          "name": "typeId",
          "type": "uint256"
        },
        {
          "internalType": "bool",
          "name": "v",
          "type": "bool"
        }
      ],
      "name": "setItemAvailableInShop",
      "outputs": [],
      "stateMutability": "nonpayable",
      "type": "function"
    },
    {
      "inputs": [
        {
          "internalType": "bytes4",
          "name": "interfaceId",
          "type": "bytes4"
        }
      ],
      "name": "supportsInterface",
      "outputs": [
        {
          "internalType": "bool",
          "name": "",
          "type": "bool"
        }
      ],
      "stateMutability": "view",
      "type": "function"
    },
    {
      "inputs": [],
      "name": "symbol",
      "outputs": [
        {
          "internalType": "string",
          "name": "",
          "type": "string"
        }
      ],
      "stateMutability": "view",
      "type": "function"
    },
    {
      "inputs": [
        {
          "internalType": "uint256",
          "name": "tokenId",
          "type": "uint256"
        }
      ],
      "name": "tokenURI",
      "outputs": [
        {
          "internalType": "string",
          "name": "",
          "type": "string"
        }
      ],
      "stateMutability": "view",
      "type": "function"
    },
    {
      "inputs": [
        {
          "internalType": "address",
          "name": "from",
          "type": "address"
        },
        {
          "internalType": "address",
          "name": "to",
          "type": "address"
        },
        {
          "internalType": "uint256",
          "name": "tokenId",
          "type": "uint256"
        }
      ],
      "name": "transferFrom",
      "outputs": [],
      "stateMutability": "nonpayable",
      "type": "function"
    },
    {
      "inputs": [
        {
          "internalType": "address",
          "name": "newOwner",
          "type": "address"
        }
      ],
      "name": "transferOwnership",
      "outputs": [],
      "stateMutability": "nonpayable",
      "type": "function"
    }
  ],
  "bytecode": "0x60806040523461037a57604080519081016001600160401b03811182821017610290576040908152600a82526913db585b5bdc9a53919560b21b602083015280519081016001600160401b038111828210176102905760405260038152624f4d4d60e81b602082015281516001600160401b038111610290575f54600181811c91168015610370575b602082101461027257601f811161030e575b50602092601f82116001146102af57928192935f926102a4575b50508160011b915f199060031b1c1916175f555b80516001600160401b03811161029057600154600181811c91168015610286575b602082101461027257601f811161020f575b50602091601f82116001146101af579181925f926101a4575b50508160011b915f199060031b1c1916176001555b33156101915760068054336001600160a01b03198216811790925560405191906001600160a01b03167f8be0079c531659141344cd1fd0a4f28419497f9722a3daafe3b4186f6b6457e05f80a3600160075560016009556001600b55612765908161037f8239f35b631e4fbdf760e01b5f525f60045260245ffd5b015190505f80610114565b601f1982169260015f52805f20915f5b8581106101f7575083600195106101df575b505050811b01600155610129565b01515f1960f88460031b161c191690555f80806101d1565b919260206001819286850151815501940192016101bf565b60015f527fb10e2d527612073b26eecdfd717e6a320cf44b4afac2b0732d9fcbe2b7fa0cf6601f830160051c81019160208410610268575b601f0160051c01905b81811061025d57506100fb565b5f8155600101610250565b9091508190610247565b634e487b7160e01b5f52602260045260245ffd5b90607f16906100e9565b634e487b7160e01b5f52604160045260245ffd5b015190505f806100b4565b601f198216935f8052805f20915f5b8681106102f657508360019596106102de575b505050811b015f556100c8565b01515f1960f88460031b161c191690555f80806102d1565b919260206001819286850151815501940192016102be565b5f80527f290decd9548b62a8d60345a988386fc84ba6bc95484008f6362f93160ef3e563601f830160051c81019160208410610366575b601f0160051c01905b81811061035b575061009a565b5f815560010161034e565b9091508190610345565b90607f1690610088565b5f80fdfe6080806040526004361015610012575f80fd5b5f3560e01c90816301ffc9a714611dcb5750806306fdde0314611d29578063081812fc14611ced578063095ea7b314611c0357806319a15f9614611bae57806323b872dd14611b975780632e070c6214611b1c57806342842e0e14611af357806342966c68146118c5578063485d7d9414611847578063575e7abd1461181f5780636352211e146117ef57806370a082311461179e578063715018a61461174357806375794a3c146117265780638da5cb5b146116fe57806393c2c2a2146116e157806395d89b41146116035780639acf878c14611513578063a22cb46514611472578063b68d7d14146112d3578063b88d4fde14611249578063b91816111461120c578063c19a4ef514611103578063c812277714610f83578063c87b56dd14610e3a578063cf1c316a14610d99578063de7fe3e714610bcd578063e3e76cdb14610652578063e985e9c5146105fb578063f2fde38b146105755763f6a4a3fd1461017c575f80fd5b3461057157604036600319011261057157610195611e5a565b60243560018060a01b036006541633148015610559575b6101b59061231a565b8015158061054e575b6101c7906122dd565b805f52600860205260405f20916040516101e081611ef8565b6101e984611f53565b815261ffff600185015416906020810191825261020860028601611f53565b6040820152600385015460ff80821615918215606085015260081c16151591826080820152610180600b60048901549860a08401998a52600581015460c0850152600681015460e0850152600781015461010085015263ffffffff6008820154166101208501526009810154610140850152600a810154610160850152015491015281610546575b501561050c5783518015908115610502575b50156104c957600b54916102b5836126cb565b600b556001600160a01b03169081156104b6575f838152600260205260409020546001600160a01b03168015159084848284610483575b815f52600360205260405f2060018154019055825f52600260205260405f20826001600160601b0360a01b8254161790556040518383867fddf252ad1be2c89b69c2b068fc378daa952ba7f163c4a11628f55a4df523b3ef5f80a48161040f575b50505050506103fc57602094600361ffff6103cf9351169151916040519261037484611f15565b8784528884019182526040840190815261ffff60608501925f8452885f52600a8b5260405f2095518655511661ffff60018601911661ffff1982541617905551600284015551151591019060ff801983541691151516179055565b60405192827f39341ff1688ed358fbd564856c3501bbcb8fb40ec920cef07a36abdc20f792945f80a48152f35b6339e3563760e11b5f525f60045260245ffd5b60207f966797173e24b9d967e243dc1f5e0ba909a673f563a8e34753de51594eccfcda91855f52600a825260405f209061044881611f15565b606060ff600384549485855261ffff60018201541687860152600281015460408601520154161515910152604051908152a484845f8061034d565b5f83815260046020526040902080546001600160a01b0319169055835f52600360205260405f205f1981540190556102ec565b633250574960e11b5f525f60045260245ffd5b60405162461bcd60e51b8152602060048201526011602482015270125d195b481d1e5c1948195e1c1a5c9959607a1b6044820152606490fd5b905042105f6102a2565b60405162461bcd60e51b81526020600482015260126024820152714974656d206e6f7420617661696c61626c6560701b6044820152606490fd5b90505f610290565b5060095481106101be565b50335f908152600c602052604090205460ff166101ac565b5f80fd5b346105715760203660031901126105715761058e611e5a565b610596612708565b6001600160a01b031680156105e857600680546001600160a01b0319811683179091556001600160a01b03167f8be0079c531659141344cd1fd0a4f28419497f9722a3daafe3b4186f6b6457e05f80a3005b631e4fbdf760e01b5f525f60045260245ffd5b3461057157604036600319011261057157610614611e5a565b61061c611e70565b9060018060a01b03165f52600560205260405f209060018060a01b03165f52602052602060ff60405f2054166040519015158152f35b346105715760203660031901126105715760043567ffffffffffffffff811161057157806004016101a0600319833603011261057157610690612708565b61069a8180612643565b905015610b985760c48201359160e4810135918284111580610b8f575b6106c090612676565b61014482013593610164830135938486111580610b86575b6106e190612676565b610104840135918215610b485761012485019361271063ffffffff610705876126ba565b1611610b145760095495610718876126cb565b600955865f52600860205260405f20906107328380612643565b9067ffffffffffffffff8211610a3e57819061074e8554611ec0565b601f8111610ac4575b505f90601f8311600114610a5d575f92610a52575b50508160011b915f199060031b1c19161782555b602481013561ffff811681036105715761ffff60018401911661ffff1982541617905560028201986107b56044830185612643565b9b909a67ffffffffffffffff8d11610a3e57601f9c6107d48254611ec0565b9d8e116109f8575b60209d505f9c601f821160011461094c57966108ef9a96600b8e9f60e09c987fceb85da5017ca275281b29674232f948070f800634e4c13ed24a9d4aca2991f29f9c9863ffffffff988e98886108f59f99610184966108e59b5f92610941575b50508160011b915f199060031b1c19161790555b6003860198610876610864606486016126d9565b8b9060ff801983541691151516179055565b61089d608485019a6108878c6126d9565b815461ff00191690151560081b61ff0016179055565b60a484013560048801558b60058801558c60068801558d60078801558a6108c760088901926126ba565b168b198254161790556009860155600a850155013591015580612643565b998a9791986126ba565b916126d9565b94604051998a9860c08a528160c08b01528a8a01375f8888018a01528d88015216604086015260608501526080840152151560a0830152601f01601f19168101030190a2604051908152f35b013590505f8061083c565b825f528e5f20905f9e8f5b601f198516116109df578e9f5061018460e09c987fceb85da5017ca275281b29674232f948070f800634e4c13ed24a9d4aca2991f29f9c986108ef9f9b94988e9860016108f59f98996108e59a63ffffffff9d600b9983601f198116106109c6575b505050811b019055610850565b01355f19600384901b60f8161c191690555f80806109b9565b916020600181928585013581550193019f019e8f610957565b815f5260205f20601f820160051c81019e60208310610a34575b601f0160051c019d8e5b8110610a2857506107dc565b5f81556001018e610a1c565b909e508e90610a12565b634e487b7160e01b5f52604160045260245ffd5b013590508c8061076c565b909150601f19831691855f5260205f20925f5b818110610aac5750908460019594939210610a93575b505050811b018255610780565b01355f19600384901b60f8161c191690558c8080610a86565b91936020600181928787013581550195019201610a70565b909150845f5260205f20601f840160051c81019160208510610b0a575b90601f859493920160051c01905b818110610afc5750610757565b5f8155849350600101610aef565b9091508190610ae1565b60405162461bcd60e51b815260206004820152600c60248201526b082a0a440e8dede40d0d2ced60a31b6044820152606490fd5b60405162461bcd60e51b81526020600482015260166024820152755072696365206d75737420626520706f73697469766560501b6044820152606490fd5b508515156106d8565b508315156106b7565b60405162461bcd60e51b815260206004820152600d60248201526c13985b59481c995c5d5a5c9959609a1b6044820152606490fd5b34610571576020366003190112610571576004355f6060604051610bf081611f15565b8281528260208201528260408201520152610c096125e2565b505f818152600260205260409020546001600160a01b031615610d64575f52600a60205260405f20604051610c3d81611f15565b610d6082549283835261ffff600182015416936020840194855260ff600360028401549360408701948552015416906060850191151582525f52600860205260405f2091600b60405193610c9085611ef8565b610c9981611f53565b855261ffff6001820154166020860152610cb560028201611f53565b604086015260ff60038201548181161515606088015260081c1615156080860152600481015460a0860152600581015460c0860152600681015460e0860152600781015461010086015263ffffffff6008820154166101208601526009810154610140860152600a810154610160860152015461018084015261ffff60405196879651875251166020860152516040850152511515606084015260a0608084015260a083019061201e565b0390f35b60405162461bcd60e51b815260206004820152600d60248201526c111bd95cdb89dd08195e1a5cdd609a1b6044820152606490fd5b3461057157602036600319011261057157610db2611e5a565b610dba612708565b6001600160a01b03168015610e0657805f52600c60205260405f20600160ff198254161790557fdd10d14f6ac19e913d4edbb11fd30661531e2ccd0d23f571e9b224f001f0dd065f80a2005b60405162461bcd60e51b815260206004820152600c60248201526b5a65726f206164647265737360a01b6044820152606490fd5b34610571576020366003190112610571576004355f81815260026020526040902054610e70906001600160a01b03161515612357565b5f52600a60205260405f20604051610e8781611f15565b606060ff600384549485855261ffff60018201541660208601526002810154604086015201541615159101525f526008602052610d6060405f20604051610ecd81611ef8565b610ed682611f53565b815261ffff6001830154166020820152610180600b610ef760028501611f53565b9384604085015260ff60038201548181161515606087015260081c1615156080850152600481015460a0850152600581015460c0850152600681015460e0850152600781015461010085015263ffffffff6008820154166101208501526009810154610140850152600a8101546101608501520154910152604051918291602083526020830190611e36565b3461057157604036600319011261057157600435610f9f611ff3565b610fa7612708565b811515806110f8575b610fb9906122dd565b815f52600860205260ff600360405f200154166110c95780806110b1575b80611099575b61103a5760207f12fc9fde97ee2f2b931cf0a3ca869e9b78a043b024cc9dee7af8cbeb781e777391835f526008825261102f81600360405f20019061ff00825491151560081b169061ff001916179055565b6040519015158152a2005b50604051907fec652d9a543bca75f324b7438ea2aa8ed0745ad329630f321bd5a1c73072ea975f80a262461bcd60e51b8152602060048201526011602482015270125d195b481d1e5c1948195e1c1a5c9959607a1b6044820152606490fd5b50815f526008602052600460405f2001544211610fdd565b50815f526008602052600460405f2001541515610fd7565b60405162461bcd60e51b815260206004820152600760248201526614995d1a5c995960ca1b6044820152606490fd5b506009548210610fb0565b346105715760203660031901126105715760043561111f6125e2565b5080151580611201575b611132906122dd565b5f526008602052610d6060405f20600b6040519161114f83611ef8565b61115881611f53565b835261ffff600182015416602084015261117460028201611f53565b604084015260ff60038201548181161515606086015260081c1615156080840152600481015460a0840152600581015460c0840152600681015460e0840152600781015461010084015263ffffffff6008820154166101208401526009810154610140840152600a810154610160840152015461018082015260405191829160208352602083019061201e565b506009548110611129565b34610571576020366003190112610571576001600160a01b0361122d611e5a565b165f52600c602052602060ff60405f2054166040519015158152f35b3461057157608036600319011261057157611262611e5a565b61126a611e70565b6064359167ffffffffffffffff831161057157366023840112156105715782600401359161129783612002565b926112a56040519485611f31565b8084523660248287010111610571576020815f9260246112d198018388013785010152604435916124a2565b005b346105715760203660031901126105715760043560018060a01b03600654163314801561145a575b6113049061231a565b805f52600a60205260405f20600381019060ff8254166114225760028101548015908115611418575b50156113e9576001019061ffff82541680158015611379575b847f52ae6ef4baf3d712be4f5f1b986cf3bd7758018f3d0e67f1050bb68be0014429602061ffff875416604051908152a2005b6113d5577f52ae6ef4baf3d712be4f5f1b986cf3bd7758018f3d0e67f1050bb68be00144299260209261ffff80935f190116831983541617825582825416156113c4575b5092611346565b805460ff19166001179055856113bd565b634e487b7160e01b5f52601160045260245ffd5b60405162461bcd60e51b8152602060048201526007602482015266115e1c1a5c995960ca1b6044820152606490fd5b905042108461132d565b60405162461bcd60e51b815260206004820152601060248201526f105b1c9958591e4818dbdb9cdd5b595960821b6044820152606490fd5b50335f908152600c602052604090205460ff166112fb565b346105715760403660031901126105715761148b611e5a565b611493611ff3565b6001600160a01b0390911690811561150057335f52600560205260405f20825f526020526114d08160405f209060ff801983541691151516179055565b60405190151581527f17307eab39ab6107e8899845ad3d59bd9653f200f220920489ca2b5937696c3160203392a3005b50630b61174360e31b5f5260045260245ffd5b34610571576020366003190112610571576004355f52600860205260405f2061153b81611f53565b600182015461ffff169161155160028201611f53565b600382015491600481015460058201546006830154600784015490600885015463ffffffff1692600986015494600a87015496600b0154976040519b8c9b6101a08d526101a08d016115a291611e36565b9060208d01528b810360408d01526115b991611e36565b9860ff8116151560608c015260081c60ff16151560808b015260a08a015260c089015260e08801526101008701526101208601526101408501526101608401526101808301520390f35b34610571575f366003190112610571576040515f60015461162381611ec0565b80845290600181169081156116bd575060011461165f575b610d608361164b81850382611f31565b604051918291602083526020830190611e36565b60015f9081527fb10e2d527612073b26eecdfd717e6a320cf44b4afac2b0732d9fcbe2b7fa0cf6939250905b8082106116a35750909150810160200161164b61163b565b91926001816020925483858801015201910190929161168b565b60ff191660208086019190915291151560051b8401909101915061164b905061163b565b34610571575f366003190112610571576020600954604051908152f35b34610571575f366003190112610571576006546040516001600160a01b039091168152602090f35b34610571575f366003190112610571576020600b54604051908152f35b34610571575f3660031901126105715761175b612708565b600680546001600160a01b031981169091555f906001600160a01b03167f8be0079c531659141344cd1fd0a4f28419497f9722a3daafe3b4186f6b6457e08280a3005b34610571576020366003190112610571576001600160a01b036117bf611e5a565b1680156117dc575f526003602052602060405f2054604051908152f35b6322718ad960e21b5f525f60045260245ffd5b3461057157602036600319011261057157602061180d6004356126e6565b6040516001600160a01b039091168152f35b3461057157602036600319011261057157602061183d600435612399565b6040519015158152f35b3461057157602036600319011261057157611860611e5a565b611868612708565b6001600160a01b03165f818152600c602052604090205461188b9060ff1661231a565b805f52600c60205260405f2060ff1981541690557f0fafd0343e6c6f6985727574866da48938c918559eb9521cf9cc0d317ea0f7b45f80a2005b346105715760203660031901126105715760043560018060a01b036006541633148015611adb575b6118f69061231a565b5f81815260026020526040902054611918906001600160a01b03161515612357565b805f52600a60205260ff600360405f2001541615611aa7575f818152600260205260409020546001600160a01b031680159082818315611a74575b815f52600260205260405f206001600160601b0360a01b815416905560405190825f857fddf252ad1be2c89b69c2b068fc378daa952ba7f163c4a11628f55a4df523b3ef8280a480611a00575b505050506119ee57805f52600a6020525f60036040822082815582600182015582600282015501557fc6eb113408f238574359334840f6fe1ced3001faf98cb0ae3fac7f64b5d610255f80a2005b637e27328960e01b5f5260045260245ffd5b7f966797173e24b9d967e243dc1f5e0ba909a673f563a8e34753de51594eccfcda60205f93858552600a82526040852090611a3a81611f15565b606060ff600384549485855261ffff60018201541687860152600281015460408601520154161515910152604051908152a48284806119a0565b5f82815260046020526040902080546001600160a01b0319169055825f52600360205260405f205f198154019055611953565b60405162461bcd60e51b815260206004820152600c60248201526b139bdd0818dbdb9cdd5b595960a21b6044820152606490fd5b50335f908152600c602052604090205460ff166118ed565b34610571576112d1611b0436611e86565b9060405192611b14602085611f31565b5f84526124a2565b3461057157602036600319011261057157600435611b38612708565b80151580611b8c575b611b4a906122dd565b5f818152600860205260408120600301805461ffff191660011790557f3f75a566fde4277ae65cfcfac0c1424d51d87bc38b13f723501adfc7052dde379080a2005b506009548110611b41565b34610571576112d1611ba836611e86565b916120d0565b34610571576020366003190112610571576004355f52600a602052608060405f2080549061ffff6001820154169060ff6003600283015492015416916040519384526020840152604083015215156060820152f35b3461057157604036600319011261057157611c1c611e5a565b602435611c28816126e6565b33151580611cda575b80611cad575b611c9a5781906001600160a01b0384811691167f8c5be1e5ebec7d5bd14f71427d1e84f3dd0314c0f7b2291e5b200ac8c7c3b9255f80a45f90815260046020526040902080546001600160a01b0319166001600160a01b03909216919091179055005b63a9fbf51f60e01b5f523360045260245ffd5b506001600160a01b0381165f90815260056020908152604080832033845290915290205460ff1615611c37565b506001600160a01b038116331415611c31565b3461057157602036600319011261057157600435611d0a816126e6565b505f526004602052602060018060a01b0360405f205416604051908152f35b34610571575f366003190112610571576040515f5f54611d4881611ec0565b80845290600181169081156116bd5750600114611d6f57610d608361164b81850382611f31565b5f8080527f290decd9548b62a8d60345a988386fc84ba6bc95484008f6362f93160ef3e563939250905b808210611db15750909150810160200161164b61163b565b919260018160209254838588010152019101909291611d99565b34610571576020366003190112610571576004359063ffffffff60e01b8216809203610571576020916380ac58cd60e01b8114908115611e25575b8115611e14575b5015158152f35b6301ffc9a760e01b14905083611e0d565b635b5e139f60e01b81149150611e06565b805180835260209291819084018484015e5f828201840152601f01601f1916010190565b600435906001600160a01b038216820361057157565b602435906001600160a01b038216820361057157565b6060906003190112610571576004356001600160a01b038116810361057157906024356001600160a01b0381168103610571579060443590565b90600182811c92168015611eee575b6020831014611eda57565b634e487b7160e01b5f52602260045260245ffd5b91607f1691611ecf565b6101a0810190811067ffffffffffffffff821117610a3e57604052565b6080810190811067ffffffffffffffff821117610a3e57604052565b90601f8019910116810190811067ffffffffffffffff821117610a3e57604052565b9060405191825f825492611f6684611ec0565b8084529360018116908115611fd15750600114611f8d575b50611f8b92500383611f31565b565b90505f9291925260205f20905f915b818310611fb5575050906020611f8b928201015f611f7e565b6020919350806001915483858901015201910190918492611f9c565b905060209250611f8b94915060ff191682840152151560051b8201015f611f7e565b60243590811515820361057157565b67ffffffffffffffff8111610a3e57601f01601f191660200190565b906101808061205b61203b85516101a086526101a0860190611e36565b61ffff602087015116602086015260408601518582036040870152611e36565b9360608101511515606085015260808101511515608085015260a081015160a085015260c081015160c085015260e081015160e085015261010081015161010085015263ffffffff61012082015116610120850152610140810151610140850152610160810151610160850152015191015290565b6001600160a01b03909116919082156104b6575f828152600260205260409020546001600160a01b03169282908433151580612246575b5085612213575b815f52600360205260405f2060018154019055825f52600260205260405f20826001600160601b0360a01b8254161790556040518383887fddf252ad1be2c89b69c2b068fc378daa952ba7f163c4a11628f55a4df523b3ef5f80a48161219f575b5050505060018060a01b031680830361218757505050565b6364283d7b60e01b5f5260045260245260445260645ffd5b60207f966797173e24b9d967e243dc1f5e0ba909a673f563a8e34753de51594eccfcda91855f52600a825260405f20906121d881611f15565b606060ff600384549485855261ffff60018201541687860152600281015460408601520154161515910152604051908152a4815f808061216f565b5f83815260046020526040902080546001600160a01b0319169055855f52600360205260405f205f19815401905561210e565b919250908061228c575b1561225e579083915f612107565b838561227657637e27328960e01b5f5260045260245ffd5b63177e802f60e01b5f523360045260245260445ffd5b5033851480156122bb575b8061225057505f848152600460205260409020546001600160a01b03163314612250565b505f85815260056020908152604080832033845290915290205460ff16612297565b156122e457565b60405162461bcd60e51b815260206004820152600e60248201526d125b9d985b1a59081d1e5c19525960921b6044820152606490fd5b1561232157565b60405162461bcd60e51b815260206004820152600e60248201526d139bdd08185d5d1a1bdc9a5e995960921b6044820152606490fd5b1561235e57565b60405162461bcd60e51b8152602060048201526013602482015272151bdad95b88191bd95cdb89dd08195e1a5cdd606a1b6044820152606490fd5b80158015612496575b612491575f52600860205260405f20604051906123be82611ef8565b6123c781611f53565b825261ffff60018201541660208301526123e360028201611f53565b6040830152600381015460ff80821615918215606086015260081c16151592836080820152610180600b6004850154948560a0850152600581015460c0850152600681015460e0850152600781015461010085015263ffffffff6008820154166101208501526009810154610140850152600a810154610160850152015491015282612489575b5081612474575090565b801591508115612482575090565b9050421090565b91505f61246a565b505f90565b506009548110156123a2565b92916124af8183866120d0565b813b6124bc575b50505050565b604051630a85bd0160e11b81523360048201526001600160a01b0394851660248201526044810191909152608060648201529216919060209082908190612507906084830190611e36565b03815f865af15f918161259d575b5061256a57503d15612563573d61252b81612002565b906125396040519283611f31565b81523d5f602083013e5b8051908161255e5782633250574960e11b5f5260045260245ffd5b602001fd5b6060612543565b6001600160e01b03191663757a42ff60e11b0161258b57505f8080806124b6565b633250574960e11b5f5260045260245ffd5b9091506020813d6020116125da575b816125b960209383611f31565b8101031261057157516001600160e01b03198116810361057157905f612515565b3d91506125ac565b604051906125ef82611ef8565b5f6101808360608152826020820152606060408201528260608201528260808201528260a08201528260c08201528260e0820152826101008201528261012082015282610140820152826101608201520152565b903590601e1981360301821215610571570180359067ffffffffffffffff82116105715760200191813603831361057157565b1561267d57565b60405162461bcd60e51b815260206004820152601560248201527424b73b30b634b2103637b1b590323ab930ba34b7b760591b6044820152606490fd5b3563ffffffff811681036105715790565b5f1981146113d55760010190565b3580151581036105715790565b5f818152600260205260409020546001600160a01b03169081156119ee575090565b6006546001600160a01b0316330361271c57565b63118cdaa760e01b5f523360045260245ffdfea264697066735822122099bf4629d6e47687695c3c80956490390c76322567def7d4ecf9bed38252807764736f6c634300081c0033",
  "linkReferences": {},
  "deployedLinkReferences": {},
  "immutableReferences": {},
  "inputSourceName": "project/contracts/OmamoriNFT.sol",
  "buildInfoId": "solc-0_8_28-e3f5b2e19080d76ce25cb914cc938e032906e967"
}