{
  "_format": "hh3-artifact-1",
  "contractName": "Vault",
  "sourceName": "contracts/Vault.sol",
  "abi": [
    {
      "inputs": [
        {
          "internalType": "address",
          "name": "_omm",
          "type": "address"
        }
      ],
      "stateMutability": "nonpayable",
      "type": "constructor"
    },
    {
      "inputs": [
        {
          "internalType": "address",
          "name": "owner",
          "type": "address"
        }
      ],
      "name": "OwnableInvalidOwner",
      "type": "error"
    },
    {
      "inputs": [
        {
          "internalType": "address",
          "name": "account",
          "type": "address"
        }
      ],
      "name": "OwnableUnauthorizedAccount",
      "type": "error"
    },
    {
      "inputs": [],
      "name": "ReentrancyGuardReentrantCall",
      "type": "error"
    },
    {
      "anonymous": false,
      "inputs": [
        {
          "indexed": true,
          "internalType": "address",
          "name": "user",
          "type": "address"
        },
        {
          "indexed": false,
          "internalType": "uint256",
          "name": "amount",
          "type": "uint256"
        }
      ],
      "name": "ETHDeposited",
      "type": "event"
    },
    {
      "anonymous": false,
      "inputs": [
        {
          "indexed": true,
          "internalType": "uint256",
          "name": "tokenId",
          "type": "uint256"
        },
        {
          "indexed": true,
          "internalType": "address",
          "name": "user",
          "type": "address"
        },
        {
          "indexed": false,
          "internalType": "uint256",
          "name": "amount",
          "type": "uint256"
        }
      ],
      "name": "ETHWithdrawn",
      "type": "event"
    },
    {
      "anonymous": false,
      "inputs": [
        {
          "indexed": true,
          "internalType": "address",
          "name": "previousOwner",
          "type": "address"
        },
        {
          "indexed": true,
          "internalType": "address",
          "name": "newOwner",
          "type": "address"
        }
      ],
      "name": "OwnershipTransferred",
      "type": "event"
    },
    {
      "anonymous": false,
      "inputs": [
        {
          "indexed": true,
          "internalType": "uint256",
          "name": "tokenId",
          "type": "uint256"
        },
        {
          "indexed": false,
          "internalType": "uint256",
          "name": "strategyId",
          "type": "uint256"
        },
        {
          "indexed": false,
          "internalType": "uint256",
          "name": "amount",
          "type": "uint256"
        }
      ],
      "name": "StrategyInvested",
      "type": "event"
    },
    {
      "anonymous": false,
      "inputs": [
        {
          "indexed": true,
          "internalType": "uint256",
          "name": "tokenId",
          "type": "uint256"
        },
        {
          "indexed": false,
          "internalType": "uint256",
          "name": "strategyId",
          "type": "uint256"
        },
        {
          "indexed": false,
          "internalType": "uint256",
          "name": "amount",
          "type": "uint256"
        }
      ],
      "name": "StrategyWithdrawn",
      "type": "event"
    },
    {
      "anonymous": false,
      "inputs": [
        {
          "indexed": true,
          "internalType": "uint256",
          "name": "tokenId",
          "type": "uint256"
        },
        {
          "indexed": false,
          "internalType": "uint256",
          "name": "yieldAmount",
          "type": "uint256"
        }
      ],
      "name": "YieldHarvested",
      "type": "event"
    },
    {
      "inputs": [
        {
          "internalType": "address",
          "name": "",
          "type": "address"
        },
        {
          "internalType": "uint256",
          "name": "",
          "type": "uint256"
        }
      ],
      "name": "ETHLocks",
      "outputs": [
        {
          "internalType": "uint256",
          "name": "amount",
          "type": "uint256"
        },
        {
          "internalType": "uint256",
          "name": "lockEnd",
          "type": "uint256"
        },
        {
          "internalType": "bool",
          "name": "claimed",
          "type": "bool"
        },
        {
          "internalType": "uint256",
          "name": "tokenId",
          "type": "uint256"
        },
        {
          "internalType": "address",
          "name": "strategyContract",
          "type": "address"
        }
      ],
      "stateMutability": "view",
      "type": "function"
    },
    {
      "inputs": [
        {
          "internalType": "address",
          "name": "",
          "type": "address"
        }
      ],
      "name": "availableETH",
      "outputs": [
        {
          "internalType": "uint256",
          "name": "",
          "type": "uint256"
        }
      ],
      "stateMutability": "view",
      "type": "function"
    },
    {
      "inputs": [
        {
          "internalType": "address",
          "name": "user",
          "type": "address"
        }
      ],
      "name": "getAvailableETH",
      "outputs": [
        {
          "internalType": "uint256",
          "name": "",
          "type": "uint256"
        }
      ],
      "stateMutability": "view",
      "type": "function"
    },
    {
      "inputs": [
        {
          "internalType": "address",
          "name": "user",
          "type": "address"
        }
      ],
      "name": "getLockLength",
      "outputs": [
        {
          "internalType": "uint256",
          "name": "",
          "type": "uint256"
        }
      ],
      "stateMutability": "view",
      "type": "function"
    },
    {
      "inputs": [
        {
          "internalType": "address",
          "name": "user",
          "type": "address"
        },
        {
          "internalType": "uint256",
          "name": "start",
          "type": "uint256"
        },
        {
          "internalType": "uint256",
          "name": "end",
          "type": "uint256"
        }
      ],
      "name": "getLocksRange",
      "outputs": [
        {
          "components": [
            {
              "internalType": "uint256",
              "name": "amount",
              "type": "uint256"
            },
            {
              "internalType": "uint256",
              "name": "lockEnd",
              "type": "uint256"
            },
            {
              "internalType": "bool",
              "name": "claimed",
              "type": "bool"
            },
            {
              "internalType": "uint256",
              "name": "tokenId",
              "type": "uint256"
            },
            {
              "internalType": "address",
              "name": "strategyContract",
              "type": "address"
            }
          ],
          "internalType": "struct Vault.ETHLock[]",
          "name": "",
          "type": "tuple[]"
        }
      ],
      "stateMutability": "view",
      "type": "function"
    },
    {
      "inputs": [
        {
          "internalType": "uint256",
          "name": "strategyId",
          "type": "uint256"
        }
      ],
      "name": "getRiskAdjustedMultiplier",
      "outputs": [
        {
          "internalType": "uint256",
          "name": "",
          "type": "uint256"
        }
      ],
      "stateMutability": "view",
      "type": "function"
    },
    {
      "inputs": [],
      "name": "getStrategyIds",
      "outputs": [
        {
          "internalType": "uint256[]",
          "name": "",
          "type": "uint256[]"
        }
      ],
      "stateMutability": "view",
      "type": "function"
    },
    {
      "inputs": [],
      "name": "getTotalHarvestableYield",
      "outputs": [
        {
          "internalType": "uint256",
          "name": "totalHarvestable",
          "type": "uint256"
        }
      ],
      "stateMutability": "view",
      "type": "function"
    },
    {
      "inputs": [],
      "name": "harvestAllStrategies",
      "outputs": [
        {
          "internalType": "uint256",
          "name": "totalHarvested",
          "type": "uint256"
        }
      ],
      "stateMutability": "nonpayable",
      "type": "function"
    },
    {
      "inputs": [
        {
          "internalType": "uint256",
          "name": "strategyId",
          "type": "uint256"
        }
      ],
      "name": "harvestStrategy",
      "outputs": [],
      "stateMutability": "nonpayable",
      "type": "function"
    },
    {
      "inputs": [
        {
          "internalType": "address",
          "name": "_zenbuLoot",
          "type": "address"
        }
      ],
      "name": "initialize",
      "outputs": [],
      "stateMutability": "nonpayable",
      "type": "function"
    },
    {
      "inputs": [],
      "name": "initialized",
      "outputs": [
        {
          "internalType": "bool",
          "name": "",
          "type": "bool"
        }
      ],
      "stateMutability": "view",
      "type": "function"
    },
    {
      "inputs": [
        {
          "internalType": "address",
          "name": "user",
          "type": "address"
        },
        {
          "internalType": "uint256",
          "name": "tokenId",
          "type": "uint256"
        },
        {
          "internalType": "uint256",
          "name": "lockDuration",
          "type": "uint256"
        },
        {
          "internalType": "uint256",
          "name": "amount",
          "type": "uint256"
        }
      ],
      "name": "invest",
      "outputs": [],
      "stateMutability": "payable",
      "type": "function"
    },
    {
      "inputs": [],
      "name": "omm",
      "outputs": [
        {
          "internalType": "contract OmamoriNFT",
          "name": "",
          "type": "address"
        }
      ],
      "stateMutability": "view",
      "type": "function"
    },
    {
      "inputs": [],
      "name": "owner",
      "outputs": [
        {
          "internalType": "address",
          "name": "",
          "type": "address"
        }
      ],
      "stateMutability": "view",
      "type": "function"
    },
    {
      "inputs": [
        {
          "internalType": "uint256",
          "name": "strategyId",
          "type": "uint256"
        },
        {
          "internalType": "address",
          "name": "strategyContract",
          "type": "address"
        }
      ],
      "name": "registerStrategy",
      "outputs": [],
      "stateMutability": "nonpayable",
      "type": "function"
    },
    {
      "inputs": [
        {
          "internalType": "uint256",
          "name": "",
          "type": "uint256"
        }
      ],
      "name": "registeredStrategyIds",
      "outputs": [
        {
          "internalType": "uint256",
          "name": "",
          "type": "uint256"
        }
      ],
      "stateMutability": "view",
      "type": "function"
    },
    {
      "inputs": [
        {
          "internalType": "address",
          "name": "user",
          "type": "address"
        },
        {
          "internalType": "uint256[]",
          "name": "lockIndexes",
          "type": "uint256[]"
        },
        {
          "internalType": "uint256",
          "name": "newDuration",
          "type": "uint256"
        }
      ],
      "name": "relockETH",
      "outputs": [
        {
          "internalType": "uint256",
          "name": "",
          "type": "uint256"
        },
        {
          "internalType": "uint256",
          "name": "",
          "type": "uint256"
        }
      ],
      "stateMutability": "nonpayable",
      "type": "function"
    },
    {
      "inputs": [],
      "name": "renounceOwnership",
      "outputs": [],
      "stateMutability": "nonpayable",
      "type": "function"
    },
    {
      "inputs": [
        {
          "internalType": "uint256",
          "name": "",
          "type": "uint256"
        }
      ],
      "name": "strategyContracts",
      "outputs": [
        {
          "internalType": "address",
          "name": "",
          "type": "address"
        }
      ],
      "stateMutability": "view",
      "type": "function"
    },
    {
      "inputs": [
        {
          "internalType": "address",
          "name": "",
          "type": "address"
        }
      ],
      "name": "totalLockedETH",
      "outputs": [
        {
          "internalType": "uint256",
          "name": "",
          "type": "uint256"
        }
      ],
      "stateMutability": "view",
      "type": "function"
    },
    {
      "inputs": [
        {
          "internalType": "address",
          "name": "newOwner",
          "type": "address"
        }
      ],
      "name": "transferOwnership",
      "outputs": [],
      "stateMutability": "nonpayable",
      "type": "function"
    },
    {
      "inputs": [
        {
          "internalType": "uint256",
          "name": "amount",
          "type": "uint256"
        }
      ],
      "name": "withdrawAvailableETH",
      "outputs": [],
      "stateMutability": "nonpayable",
      "type": "function"
    },
    {
      "inputs": [
        {
          "internalType": "uint256[]",
          "name": "lockIndexes",
          "type": "uint256[]"
        },
        {
          "internalType": "bool",
          "name": "toVault",
          "type": "bool"
        }
      ],
      "name": "withdrawETH",
      "outputs": [],
      "stateMutability": "nonpayable",
      "type": "function"
    },
    {
      "inputs": [
        {
          "internalType": "uint256",
          "name": "tokenId",
          "type": "uint256"
        }
      ],
      "name": "withdrawFromStrategy",
      "outputs": [],
      "stateMutability": "nonpayable",
      "type": "function"
    },
    {
      "inputs": [],
      "name": "zenbuLoot",
      "outputs": [
        {
          "internalType": "address",
          "name": "",
          "type": "address"
        }
      ],
      "stateMutability": "view",
      "type": "function"
    },
    {
      "stateMutability": "payable",
      "type": "receive"
    }
  ],
  "bytecode": "0x60a03461011f57601f6120b038819003918201601f19168301916001600160401b038311848410176101235780849260209460405283398101031261011f57516001600160a01b0381169081900361011f57331561010c575f8054336001600160a01b03198216811783556040519290916001600160a01b0316907f8be0079c531659141344cd1fd0a4f28419497f9722a3daafe3b4186f6b6457e09080a3600180556002805460ff60a01b1916905581156100df5750608052604051611f789081610138823960805181818161019e0152818161081a0152610b380152f35b62461bcd60e51b81526020600482015260086024820152675a65726f206f6d6d60c01b6044820152606490fd5b631e4fbdf760e01b5f525f60045260245ffd5b5f80fd5b634e487b7160e01b5f52604160045260245ffdfe6080604052600436101561001a575b3615610018575f80fd5b005b5f5f3560e01c80630c36b3d2146114f0578063158ef93e146114cb5780631997db76146113b157806320dec645146113255780633dd4d3a8146112fd57806348b19335146112e45780634f4c2e2c146112ac5780635e5234eb146112745780636b5afcd4146111ce578063715018a61461117757806371a00b0b146111235780638da5cb5b146110fc578063a1d6b89c14611046578063a474cd5c146106f9578063af74e18114610f9a578063b0128d3f14610f62578063b832dcf814610d34578063be82277014610c69578063c131361314610c37578063c4d66de814610b67578063d9ce076d14610b23578063dc93764414610731578063dee41eb6146106f9578063f2fde38b14610674578063f8af7b52146105de5763fc1adfdf14610143575061000e565b608036600319011261054b57610157611601565b60643590602435604435610169611eb0565b6002546001600160a01b0316331480156105d5575b6101879061170f565b6040516331a9108f60e11b815260048101839052927f00000000000000000000000000000000000000000000000000000000000000006001600160a01b03169190602085602481865afa948515610540575f956105b0575b506001600160a01b03908116946101f891168514611bf5565b60405163de7fe3e760e01b8152600481018490525f81602481865afa801561054057610180915f91610594575b500180515f9081526006602052604090205461024b906001600160a01b0316151561174c565b515f908152600660205260409020546001600160a01b031661026e81151561174c565b845f52600560205260405f20610285348254611825565b905585610295575b866001805580f35b845f5260056020528560405f20541061054f57803b1561054b575f869160046040518094819363e8b5e51f60e01b83525af180156105405761052b575b5085604051926331a9108f60e11b8452846004850152602084602481845afa801561052057866103169160249685916104f1575b506001600160a01b031614611bf5565b6040519384809263de7fe3e760e01b82528760048301525afa9182156104e65786926104c0575b5061018082018051875260066020526040872054909290610368906001600160a01b0316151561174c565b610379610140820151871015611ef6565b61038a610160820151871115611ef6565b60c0810151821061047b5760e001518111610436576103fa9284875260036020526103b9604088209242611825565b92518752600660205260018060a01b0360408820541690604051936103dd8561165c565b878552602085015287604085015260608401526080830152611e17565b808352600460205260408320610411838254611825565b90558252600560205261042960408320918254611846565b90555f808080808061028d565b60405162461bcd60e51b815260206004820152601760248201527f4c6f636b206475726174696f6e2061626f7665206d61780000000000000000006044820152606490fd5b60405162461bcd60e51b815260206004820152601760248201527f4c6f636b206475726174696f6e2062656c6f77206d696e0000000000000000006044820152606490fd5b6104dd9192503d8088833e6104d58183611678565b810190611c93565b9050905f61033d565b6040513d88823e3d90fd5b610513915060203d602011610519575b61050b8183611678565b810190611bd6565b5f610306565b503d610501565b6040513d84823e3d90fd5b6105389196505f90611678565b5f945f6102d2565b6040513d5f823e3d90fd5b5f80fd5b60405162461bcd60e51b815260206004820152601a60248201527f496e73756666696369656e742045544820746f20696e766573740000000000006044820152606490fd5b6105a891503d805f833e6104d58183611678565b90505f610225565b6101f89195506105ce9060203d6020116105195761050b8183611678565b94906101df565b5033301461017e565b3461054b57602036600319011261054b576004355f5260066020526004602060018060a01b0360405f20541661061581151561174c565b6040516344519e0f60e01b815292839182905afa8015610540575f90610641575b602090604051908152f35b506020813d60201161066c575b8161065b60209383611678565b8101031261054b5760209051610636565b3d915061064e565b3461054b57602036600319011261054b5761068d611601565b610695611ed0565b6001600160a01b031680156106e6575f80546001600160a01b03198116831782556001600160a01b0316907f8be0079c531659141344cd1fd0a4f28419497f9722a3daafe3b4186f6b6457e09080a3005b631e4fbdf760e01b5f525f60045260245ffd5b3461054b57602036600319011261054b576001600160a01b0361071a611601565b165f526005602052602060405f2054604051908152f35b3461054b57606036600319011261054b5761074a611601565b60243567ffffffffffffffff811161054b5761076a9036906004016116b2565b9060443590610777611eb0565b6002546001600160a01b031633148015610b1a575b6107959061170f565b6107a183511515611853565b60036107e06107af8561188c565b519260018060a01b031692835f52826020526107d060405f205482106118ad565b835f528260205260405f20611617565b506107f260ff600283015416156118e9565b6108026001820154421015611927565b01546040516331a9108f60e11b8152600481018290527f00000000000000000000000000000000000000000000000000000000000000006001600160a01b03169491929190602081602481895afa95861561054057610876846024985f948591610afb57506001600160a01b031614611bf5565b6040519687809263de7fe3e760e01b82528760048301525afa948515610540575f95610add575b5061018085019384515f5260066020526108c460018060a01b0360405f205416151561174c565b60c08601518110610aa35760e08601518111610a69575f95945f5b8351811015610974578060ff9798600161096361092961090083968a611899565b518a5f52600360205261091860405f205482106118ad565b8a5f52600360205260405f20611617565b5092600284019361093e85549d8e16156118e9565b61094d84820154421015611927565b61095c8c60038301541461195f565b5490611825565b9960ff1916179055019695966108df565b50915094936101408101518510610a3157610160015184116109f9576040946109e9925f5260036020526109ab865f209142611825565b91515f52600660205260018060a01b03865f2054168651926109cc8461165c565b86845260208401525f878401528460608401526080830152611e17565b6001805582519182526020820152f35b60405162461bcd60e51b815260206004820152601060248201526f10589bdd99481b585e081a5b9d995cdd60821b6044820152606490fd5b60405162461bcd60e51b815260206004820152601060248201526f10995b1bddc81b5a5b881a5b9d995cdd60821b6044820152606490fd5b60405162461bcd60e51b815260206004820152601260248201527120b137bb329036b0bc10323ab930ba34b7b760711b6044820152606490fd5b60405162461bcd60e51b81526020600482015260126024820152712132b637bb9036b4b710323ab930ba34b7b760711b6044820152606490fd5b610af29195503d805f833e6104d58183611678565b9050938561089d565b610b14915060203d6020116105195761050b8183611678565b8a610306565b5033301461078c565b3461054b575f36600319011261054b576040517f00000000000000000000000000000000000000000000000000000000000000006001600160a01b03168152602090f35b3461054b57602036600319011261054b57610b80611601565b610b88611ed0565b6002549060ff8260a01c16610bf2576001600160a01b03168015610bbe576001600160a81b031990911617600160a01b17600255005b60405162461bcd60e51b815260206004820152600c60248201526b5a65726f206164647265737360a01b6044820152606490fd5b60405162461bcd60e51b815260206004820152601960248201527f5661756c7420616c726561647920696e697469616c697a6564000000000000006044820152606490fd5b3461054b57602036600319011261054b576004355f526006602052602060018060a01b0360405f205416604051908152f35b3461054b575f36600319011261054b575f5f600754905b818110610c9257602083604051908152f35b610c9b81611644565b90549060031b1c5f52600660205260018060a01b0360405f20541680610cc5575b50600101610c80565b6020600491604095939551928380926369edb45760e01b82525afa908115610540575f91610d02575b50610cfb90600192611825565b9290610cbc565b90506020813d8211610d2c575b81610d1c60209383611678565b8101031261054b57516001610cee565b3d9150610d0f565b3461054b57606036600319011261054b57610d4d611601565b60243560443591828211610f2d576001600160a01b03165f818152600360205260409020549092908111610ef25781610d8591611846565b90610d8f8261169a565b92610d9d6040519485611678565b828452601f19610dac8461169a565b015f5b818110610ebd5750505f5b838110610e3a57846040518091602082016020835281518091526020604084019201905f5b818110610ded575050500390f35b91935091602060a060019286518051825283810151848301526040810151151560408301526060810151606083015260808580851b03910151166080820152019401910191849392610ddf565b600190825f526003602052610e5c60405f20610e568387611825565b90611617565b5060405190610e6a8261165c565b8054825283810154602083015260ff60028201541615156040830152600381015460608301526004848060a01b03910154166080820152610eab8288611899565b52610eb68187611899565b5001610dba565b602090604051610ecc8161165c565b5f81525f838201525f60408201525f60608201525f608082015282828901015201610daf565b60405162461bcd60e51b815260206004820152601360248201527252616e6765206f7574206f6620626f756e647360681b6044820152606490fd5b60405162461bcd60e51b815260206004820152600d60248201526c496e76616c69642072616e676560981b6044820152606490fd5b3461054b57602036600319011261054b576001600160a01b03610f83611601565b165f526003602052602060405f2054604051908152f35b3461054b57604036600319011261054b576004356024356001600160a01b038116810361054b57610fc9611ed0565b5f82815260066020526040902080546001600160a01b031981166001600160a01b03938416179091551615610ffa57005b600754600160401b811015611032578060016110199201600755611644565b819291549060031b91821b915f19901b19161790555f80f35b634e487b7160e01b5f52604160045260245ffd5b3461054b575f36600319011261054b576040518060206007549283815201809260075f527fa66cc928b5edb82af9bd49922954155ab7b0942694bea4ce44661d9a8736c688905f5b8181106110e657505050816110a4910382611678565b604051918291602083019060208452518091526040830191905f5b8181106110cd575050500390f35b82518452859450602093840193909201916001016110bf565b825484526020909301926001928301920161108e565b3461054b575f36600319011261054b575f546040516001600160a01b039091168152602090f35b3461054b57604036600319011261054b5760043567ffffffffffffffff811161054b576111549036906004016116b2565b602435801515810361054b576111719161116c611eb0565b61199f565b60018055005b3461054b575f36600319011261054b5761118f611ed0565b5f80546001600160a01b0319811682556001600160a01b03167f8be0079c531659141344cd1fd0a4f28419497f9722a3daafe3b4186f6b6457e08280a3005b3461054b57602036600319011261054b576004356111ea611eb0565b335f5260056020528060405f20541061122f575f8080806111719433825260056020526040822061121c828254611846565b9055335af16112296117b4565b506117e3565b60405162461bcd60e51b815260206004820152601a60248201527f496e73756666696369656e7420617661696c61626c65204554480000000000006044820152606490fd5b3461054b57602036600319011261054b576001600160a01b03611295611601565b165f526004602052602060405f2054604051908152f35b3461054b57602036600319011261054b5760043560075481101561054b576112d5602091611644565b90549060031b1c604051908152f35b3461054b57602036600319011261054b57611171611eb0565b3461054b575f36600319011261054b576002546040516001600160a01b039091168152602090f35b3461054b57604036600319011261054b5761133e611601565b6001600160a01b03165f9081526003602052604090208054602435919082101561054b5760a09161136e91611617565b5080549060018101549060ff6002820154166003820154916004600180881b03910154169260405194855260208501521515604084015260608301526080820152f35b3461054b575f36600319011261054b576113c9611eb0565b6002546001600160a01b0316331480156114c2575b6113e79061170f565b5f5f5b600754811015611495576113fd81611644565b90549060031b1c5f52600660205260018060a01b0360405f20541680611427575b506001016113ea565b60205f9160046040518094819363e8d991d160e01b83525af15f9181611462575b501561141e5761145b9060019293611825565b919061141e565b9091506020813d821161148d575b8161147d60209383611678565b8101031261054b57519084611448565b3d9150611470565b602082806114aa575b60018055604051908152f35b6114bd5f80808085335af16112296117b4565b61149e565b503330146113de565b3461054b575f36600319011261054b57602060ff60025460a01c166040519015158152f35b3461054b57602036600319011261054b57611509611eb0565b6002546001600160a01b0316331480156115f8575b6115279061170f565b6004355f9081526006602090815260408220546001600160a01b031661154e81151561174c565b60046040518094819363e8d991d160e01b83525af1908115610540575f916115c6575b50801561158b575f80808061117194335af16112296117b4565b60405162461bcd60e51b8152602060048201526013602482015272139bc81e5a595b19081d1bc81a185c9d995cdd606a1b6044820152606490fd5b90506020813d6020116115f0575b816115e160209383611678565b8101031261054b575181611571565b3d91506115d4565b5033301461151e565b600435906001600160a01b038216820361054b57565b8054821015611630575f52600560205f20910201905f90565b634e487b7160e01b5f52603260045260245ffd5b6007548110156116305760075f5260205f2001905f90565b60a0810190811067ffffffffffffffff82111761103257604052565b90601f8019910116810190811067ffffffffffffffff82111761103257604052565b67ffffffffffffffff81116110325760051b60200190565b9080601f8301121561054b5781356116c98161169a565b926116d76040519485611678565b81845260208085019260051b82010192831161054b57602001905b8282106116ff5750505090565b81358152602091820191016116f2565b1561171657565b60405162461bcd60e51b815260206004820152600e60248201526d139bdd08185d5d1a1bdc9a5e995960921b6044820152606490fd5b1561175357565b60405162461bcd60e51b815260206004820152601760248201527f5374726174656779206e6f7420726567697374657265640000000000000000006044820152606490fd5b67ffffffffffffffff811161103257601f01601f191660200190565b3d156117de573d906117c582611798565b916117d36040519384611678565b82523d5f602084013e565b606090565b156117ea57565b60405162461bcd60e51b8152602060048201526013602482015272115512081d1c985b9cd9995c8819985a5b1959606a1b6044820152606490fd5b9190820180921161183257565b634e487b7160e01b5f52601160045260245ffd5b9190820391821161183257565b1561185a57565b60405162461bcd60e51b815260206004820152600a6024820152694e6f20696e646578657360b01b6044820152606490fd5b8051156116305760200190565b80518210156116305760209160051b010190565b156118b457565b60405162461bcd60e51b815260206004820152600d60248201526c092dcecc2d8d2c840d2dcc8caf609b1b6044820152606490fd5b156118f057565b60405162461bcd60e51b815260206004820152600f60248201526e105b1c9958591e4818db185a5b5959608a1b6044820152606490fd5b1561192e57565b60405162461bcd60e51b8152602060048201526009602482015268139bdd08195b99195960ba1b6044820152606490fd5b1561196657565b60405162461bcd60e51b8152602060048201526011602482015270111a5999995c995b9d081d1bdad95b9259607a1b6044820152606490fd5b6119ab81511515611853565b6119e06119b78261188c565b51335f5260036020526119cf60405f205482106118ad565b335f52600360205260405f20611617565b506119f260ff600283015416156118e9565b611a026001820154421015611927565b60038101546004909101546001600160a01b031691611a2283151561174c565b5f925f5b8251811015611a865780611a3f6119b760019386611899565b509582611a786002890192835499611a5a60ff8c16156118e9565b611a6984820154421015611927565b61095c8a60038301541461195f565b9760ff191617905501611a26565b50939290508015611b9b575f9360246020926040519687938492632e1a7d4d60e01b845260048401525af1928315610540575f93611b67575b50335f52600460205260405f20611ad7848254611846565b9055604051908382527f24b41b36b869bd55ec686e8d5a696fc0d8e2e2e6eab6863ddafcdf3de1e1511e60203393a315611b5257335f52600560205260405f20611b22828254611825565b90556040519081527f6c703791f399558807424f489ccd811c72b4ff0b74af547264fad7c646776df060203392a2565b5f808080611b6594335af16112296117b4565b565b9092506020813d602011611b93575b81611b8360209383611678565b8101031261054b5751915f611abf565b3d9150611b76565b60405162461bcd60e51b81526020600482015260136024820152724e6f7468696e6720746f20776974686472617760681b6044820152606490fd5b9081602091031261054b57516001600160a01b038116810361054b5790565b15611bfc57565b60405162461bcd60e51b815260206004820152600d60248201526c2737ba1027232a1037bbb732b960991b6044820152606490fd5b519061ffff8216820361054b57565b5190811515820361054b57565b81601f8201121561054b57805190611c6482611798565b92611c726040519485611678565b8284526020838301011161054b57815f9260208093018386015e8301015290565b919082810360a0811261054b5760801361054b576040516080810181811067ffffffffffffffff8211176110325760405283518152611cd460208501611c31565b602082015260408401516040820152611cef60608501611c40565b60608201529260808101519067ffffffffffffffff821161054b57016101a08183031261054b57604051916101a0830183811067ffffffffffffffff82111761103257604052815167ffffffffffffffff811161054b5781611d52918401611c4d565b8352611d6060208301611c31565b602084015260408201519067ffffffffffffffff821161054b57611d85918301611c4d565b6040830152611d9660608201611c40565b6060830152611da760808201611c40565b608083015260a081015160a083015260c081015160c083015260e081015160e08301526101008101516101008301526101208101519063ffffffff8216820361054b5761018091610120840152610140810151610140840152610160810151610160840152015161018082015290565b8054600160401b81101561103257611e3491600182018155611617565b919091611e9d578060049151835560208101516001840155600283016040820151151560ff8019835416911617905560608101516003840155608060018060a01b039101511691019060018060a01b03166bffffffffffffffffffffffff60a01b825416179055565b634e487b7160e01b5f525f60045260245ffd5b600260015414611ec1576002600155565b633ee5aeb560e01b5f5260045ffd5b5f546001600160a01b03163303611ee357565b63118cdaa760e01b5f523360045260245ffd5b15611efd57565b60405162461bcd60e51b815260206004820152601b60248201527f416d6f756e742062656c6f77206d696e20696e766573746d656e7400000000006044820152606490fdfea2646970667358221220e6e8f8b757000b4c0190aaddc53c4e23bcde67daf50e0f82b8e7e88a6e1bf0c264736f6c634300081c0033",
  "linkReferences": {},
  "deployedLinkReferences": {},
  "immutableReferences": {
    "8286": [
      {
        "length": 32,
        "start": 414
      },
      {
        "length": 32,
        "start": 2074
      },
      {
        "length": 32,
        "start": 2872
      }
    ]
  },
  "inputSourceName": "project/contracts/Vault.sol",
  "buildInfoId": "solc-0_8_28-d674254db5186cffbd6ad08b44a542f0cc729db4"
}