{
  "_format": "hh3-artifact-1",
  "contractName": "ZenbuLoot",
  "sourceName": "contracts/ZenbuLoot.sol",
  "abi": [
    {
      "inputs": [
        {
          "internalType": "contract Zenikane",
          "name": "_token",
          "type": "address"
        },
        {
          "internalType": "contract IOmamoriNFT",
          "name": "_omm",
          "type": "address"
        },
        {
          "internalType": "contract IGameEngine",
          "name": "_gameEngine",
          "type": "address"
        },
        {
          "internalType": "contract IVault",
          "name": "_vault",
          "type": "address"
        }
      ],
      "stateMutability": "nonpayable",
      "type": "constructor"
    },
    {
      "inputs": [],
      "name": "AmountTooSmall",
      "type": "error"
    },
    {
      "inputs": [],
      "name": "ETHTransferFailed",
      "type": "error"
    },
    {
      "inputs": [],
      "name": "GameEngineNotSet",
      "type": "error"
    },
    {
      "inputs": [],
      "name": "InsufficientContractETH",
      "type": "error"
    },
    {
      "inputs": [],
      "name": "InsufficientETH",
      "type": "error"
    },
    {
      "inputs": [],
      "name": "InsufficientZKNBalance",
      "type": "error"
    },
    {
      "inputs": [
        {
          "internalType": "string",
          "name": "feeType",
          "type": "string"
        }
      ],
      "name": "InvalidFeeRange",
      "type": "error"
    },
    {
      "inputs": [],
      "name": "InvalidLockIndex",
      "type": "error"
    },
    {
      "inputs": [],
      "name": "InvalidRange",
      "type": "error"
    },
    {
      "inputs": [],
      "name": "InvalidRewardFromEngine",
      "type": "error"
    },
    {
      "inputs": [],
      "name": "ItemNotAvailable",
      "type": "error"
    },
    {
      "inputs": [],
      "name": "NoClaimableZKN",
      "type": "error"
    },
    {
      "inputs": [],
      "name": "NoLocksSpecified",
      "type": "error"
    },
    {
      "inputs": [],
      "name": "NoZKNTokensMinted",
      "type": "error"
    },
    {
      "inputs": [],
      "name": "NoZKNTokensToMint",
      "type": "error"
    },
    {
      "inputs": [],
      "name": "NotNFTOwner",
      "type": "error"
    },
    {
      "inputs": [
        {
          "internalType": "address",
          "name": "owner",
          "type": "address"
        }
      ],
      "name": "OwnableInvalidOwner",
      "type": "error"
    },
    {
      "inputs": [
        {
          "internalType": "address",
          "name": "account",
          "type": "address"
        }
      ],
      "name": "OwnableUnauthorizedAccount",
      "type": "error"
    },
    {
      "inputs": [],
      "name": "QueueFull",
      "type": "error"
    },
    {
      "inputs": [],
      "name": "RangeOutOfBounds",
      "type": "error"
    },
    {
      "inputs": [],
      "name": "ReentrancyGuardReentrantCall",
      "type": "error"
    },
    {
      "inputs": [],
      "name": "RefundFailed",
      "type": "error"
    },
    {
      "inputs": [],
      "name": "TooManyLocks",
      "type": "error"
    },
    {
      "anonymous": false,
      "inputs": [
        {
          "indexed": true,
          "internalType": "address",
          "name": "user",
          "type": "address"
        },
        {
          "indexed": false,
          "internalType": "uint256",
          "name": "amountETH",
          "type": "uint256"
        }
      ],
      "name": "AppendedToQueue",
      "type": "event"
    },
    {
      "anonymous": false,
      "inputs": [
        {
          "indexed": true,
          "internalType": "address",
          "name": "to",
          "type": "address"
        },
        {
          "indexed": false,
          "internalType": "uint256",
          "name": "amount",
          "type": "uint256"
        }
      ],
      "name": "ETHWithdrawn",
      "type": "event"
    },
    {
      "anonymous": false,
      "inputs": [
        {
          "indexed": false,
          "internalType": "string",
          "name": "feeType",
          "type": "string"
        },
        {
          "indexed": false,
          "internalType": "uint256",
          "name": "amount",
          "type": "uint256"
        },
        {
          "indexed": false,
          "internalType": "address",
          "name": "from",
          "type": "address"
        }
      ],
      "name": "FeeCollected",
      "type": "event"
    },
    {
      "anonymous": false,
      "inputs": [
        {
          "components": [
            {
              "internalType": "uint16",
              "name": "nftPurchaseFee",
              "type": "uint16"
            },
            {
              "internalType": "uint16",
              "name": "zknBuyFee",
              "type": "uint16"
            },
            {
              "internalType": "uint16",
              "name": "zknSellFee",
              "type": "uint16"
            },
            {
              "internalType": "uint16",
              "name": "gameFee",
              "type": "uint16"
            },
            {
              "internalType": "uint16",
              "name": "performanceFee",
              "type": "uint16"
            }
          ],
          "indexed": false,
          "internalType": "struct FeeSettings",
          "name": "newFees",
          "type": "tuple"
        }
      ],
      "name": "FeesUpdated",
      "type": "event"
    },
    {
      "anonymous": false,
      "inputs": [
        {
          "indexed": false,
          "internalType": "string",
          "name": "reason",
          "type": "string"
        }
      ],
      "name": "HarvestFailed",
      "type": "event"
    },
    {
      "anonymous": false,
      "inputs": [
        {
          "indexed": true,
          "internalType": "address",
          "name": "buyer",
          "type": "address"
        },
        {
          "indexed": false,
          "internalType": "uint256",
          "name": "nftPrice",
          "type": "uint256"
        },
        {
          "indexed": false,
          "internalType": "uint256",
          "name": "tokenId",
          "type": "uint256"
        },
        {
          "indexed": false,
          "internalType": "uint256",
          "name": "investedAmount",
          "type": "uint256"
        }
      ],
      "name": "OmamoriNFTPurchased",
      "type": "event"
    },
    {
      "anonymous": false,
      "inputs": [
        {
          "indexed": true,
          "internalType": "address",
          "name": "previousOwner",
          "type": "address"
        },
        {
          "indexed": true,
          "internalType": "address",
          "name": "newOwner",
          "type": "address"
        }
      ],
      "name": "OwnershipTransferred",
      "type": "event"
    },
    {
      "anonymous": false,
      "inputs": [
        {
          "indexed": true,
          "internalType": "address",
          "name": "to",
          "type": "address"
        },
        {
          "indexed": false,
          "internalType": "uint256",
          "name": "zknAmount",
          "type": "uint256"
        }
      ],
      "name": "ProfitsWithdrawn",
      "type": "event"
    },
    {
      "anonymous": false,
      "inputs": [
        {
          "indexed": false,
          "internalType": "uint256",
          "name": "itemsProcessed",
          "type": "uint256"
        },
        {
          "indexed": false,
          "internalType": "uint256",
          "name": "totalZKNSold",
          "type": "uint256"
        },
        {
          "indexed": false,
          "internalType": "uint256",
          "name": "totalETHPaidOut",
          "type": "uint256"
        }
      ],
      "name": "QueueProcessed",
      "type": "event"
    },
    {
      "anonymous": false,
      "inputs": [
        {
          "indexed": true,
          "internalType": "address",
          "name": "user",
          "type": "address"
        },
        {
          "indexed": false,
          "internalType": "uint256",
          "name": "amountZKN",
          "type": "uint256"
        }
      ],
      "name": "SellSkippedUserNoZKN",
      "type": "event"
    },
    {
      "anonymous": false,
      "inputs": [
        {
          "indexed": true,
          "internalType": "address",
          "name": "buyer",
          "type": "address"
        },
        {
          "indexed": false,
          "internalType": "uint256",
          "name": "zknAmount",
          "type": "uint256"
        },
        {
          "indexed": false,
          "internalType": "uint256",
          "name": "ethAmount",
          "type": "uint256"
        }
      ],
      "name": "ZKNBought",
      "type": "event"
    },
    {
      "anonymous": false,
      "inputs": [
        {
          "indexed": true,
          "internalType": "address",
          "name": "user",
          "type": "address"
        },
        {
          "indexed": false,
          "internalType": "uint256",
          "name": "tokenId",
          "type": "uint256"
        },
        {
          "indexed": false,
          "internalType": "uint256",
          "name": "lockIndex",
          "type": "uint256"
        },
        {
          "indexed": false,
          "internalType": "uint256",
          "name": "amount",
          "type": "uint256"
        },
        {
          "indexed": false,
          "internalType": "uint256",
          "name": "lockEnd",
          "type": "uint256"
        }
      ],
      "name": "ZKNLocked",
      "type": "event"
    },
    {
      "anonymous": false,
      "inputs": [
        {
          "indexed": false,
          "internalType": "uint256",
          "name": "newPrice",
          "type": "uint256"
        },
        {
          "indexed": false,
          "internalType": "uint256",
          "name": "totalETHBacking",
          "type": "uint256"
        },
        {
          "indexed": false,
          "internalType": "uint256",
          "name": "totalZKNSupply",
          "type": "uint256"
        }
      ],
      "name": "ZKNPriceUpdated",
      "type": "event"
    },
    {
      "anonymous": false,
      "inputs": [
        {
          "indexed": true,
          "internalType": "address",
          "name": "seller",
          "type": "address"
        },
        {
          "indexed": false,
          "internalType": "uint256",
          "name": "zknAmount",
          "type": "uint256"
        },
        {
          "indexed": false,
          "internalType": "uint256",
          "name": "ethAmount",
          "type": "uint256"
        }
      ],
      "name": "ZKNSold",
      "type": "event"
    },
    {
      "anonymous": false,
      "inputs": [
        {
          "indexed": true,
          "internalType": "address",
          "name": "user",
          "type": "address"
        },
        {
          "indexed": false,
          "internalType": "uint256",
          "name": "totalClaimed",
          "type": "uint256"
        }
      ],
      "name": "ZKNUnlocked",
      "type": "event"
    },
    {
      "inputs": [],
      "name": "MAX_QUEUE_LENGTH",
      "outputs": [
        {
          "internalType": "uint256",
          "name": "",
          "type": "uint256"
        }
      ],
      "stateMutability": "view",
      "type": "function"
    },
    {
      "inputs": [],
      "name": "QUEUE_EXPIRY_DURATION",
      "outputs": [
        {
          "internalType": "uint256",
          "name": "",
          "type": "uint256"
        }
      ],
      "stateMutability": "view",
      "type": "function"
    },
    {
      "inputs": [],
      "name": "ZKN_PRICE_IN_ETH",
      "outputs": [
        {
          "internalType": "uint256",
          "name": "",
          "type": "uint256"
        }
      ],
      "stateMutability": "view",
      "type": "function"
    },
    {
      "inputs": [
        {
          "internalType": "uint256",
          "name": "typeId",
          "type": "uint256"
        },
        {
          "internalType": "uint256",
          "name": "lockDuration",
          "type": "uint256"
        }
      ],
      "name": "buyAndInvestOmamoriNFT",
      "outputs": [],
      "stateMutability": "payable",
      "type": "function"
    },
    {
      "inputs": [],
      "name": "buyZKN",
      "outputs": [],
      "stateMutability": "payable",
      "type": "function"
    },
    {
      "inputs": [
        {
          "internalType": "uint256",
          "name": "amountETH",
          "type": "uint256"
        },
        {
          "internalType": "uint256",
          "name": "lockDuration",
          "type": "uint256"
        },
        {
          "internalType": "uint256",
          "name": "apr",
          "type": "uint256"
        },
        {
          "internalType": "uint256",
          "name": "strategyId",
          "type": "uint256"
        }
      ],
      "name": "calculateZKNPotentialProfit",
      "outputs": [
        {
          "internalType": "uint256",
          "name": "",
          "type": "uint256"
        }
      ],
      "stateMutability": "view",
      "type": "function"
    },
    {
      "inputs": [],
      "name": "collectedFees",
      "outputs": [
        {
          "internalType": "uint256",
          "name": "gameFee",
          "type": "uint256"
        },
        {
          "internalType": "uint256",
          "name": "performanceFee",
          "type": "uint256"
        }
      ],
      "stateMutability": "view",
      "type": "function"
    },
    {
      "inputs": [],
      "name": "fees",
      "outputs": [
        {
          "internalType": "uint16",
          "name": "nftPurchaseFee",
          "type": "uint16"
        },
        {
          "internalType": "uint16",
          "name": "zknBuyFee",
          "type": "uint16"
        },
        {
          "internalType": "uint16",
          "name": "zknSellFee",
          "type": "uint16"
        },
        {
          "internalType": "uint16",
          "name": "gameFee",
          "type": "uint16"
        },
        {
          "internalType": "uint16",
          "name": "performanceFee",
          "type": "uint16"
        }
      ],
      "stateMutability": "view",
      "type": "function"
    },
    {
      "inputs": [],
      "name": "gameEngine",
      "outputs": [
        {
          "internalType": "contract IGameEngine",
          "name": "",
          "type": "address"
        }
      ],
      "stateMutability": "view",
      "type": "function"
    },
    {
      "inputs": [
        {
          "internalType": "address",
          "name": "user",
          "type": "address"
        }
      ],
      "name": "getAvailableZKN",
      "outputs": [
        {
          "internalType": "uint256",
          "name": "",
          "type": "uint256"
        }
      ],
      "stateMutability": "view",
      "type": "function"
    },
    {
      "inputs": [
        {
          "internalType": "address",
          "name": "user",
          "type": "address"
        }
      ],
      "name": "getLockLength",
      "outputs": [
        {
          "internalType": "uint256",
          "name": "",
          "type": "uint256"
        }
      ],
      "stateMutability": "view",
      "type": "function"
    },
    {
      "inputs": [
        {
          "internalType": "address",
          "name": "user",
          "type": "address"
        },
        {
          "internalType": "uint256",
          "name": "start",
          "type": "uint256"
        },
        {
          "internalType": "uint256",
          "name": "end",
          "type": "uint256"
        }
      ],
      "name": "getLocksRange",
      "outputs": [
        {
          "components": [
            {
              "internalType": "uint256",
              "name": "amount",
              "type": "uint256"
            },
            {
              "internalType": "uint256",
              "name": "lockEnd",
              "type": "uint256"
            },
            {
              "internalType": "bool",
              "name": "claimed",
              "type": "bool"
            },
            {
              "internalType": "uint256",
              "name": "tokenId",
              "type": "uint256"
            }
          ],
          "internalType": "struct ZenbuLoot.ZKNLock[]",
          "name": "",
          "type": "tuple[]"
        }
      ],
      "stateMutability": "view",
      "type": "function"
    },
    {
      "inputs": [],
      "name": "getProfitInfo",
      "outputs": [
        {
          "internalType": "uint256",
          "name": "totalZKNFeesCollected",
          "type": "uint256"
        },
        {
          "internalType": "uint256",
          "name": "withdrawableZKN",
          "type": "uint256"
        },
        {
          "components": [
            {
              "internalType": "uint256",
              "name": "gameFee",
              "type": "uint256"
            },
            {
              "internalType": "uint256",
              "name": "performanceFee",
              "type": "uint256"
            }
          ],
          "internalType": "struct FeeCollectedState",
          "name": "currentCollectedFees",
          "type": "tuple"
        }
      ],
      "stateMutability": "view",
      "type": "function"
    },
    {
      "inputs": [
        {
          "internalType": "uint256",
          "name": "tokenId",
          "type": "uint256"
        },
        {
          "internalType": "uint256",
          "name": "lockDuration",
          "type": "uint256"
        },
        {
          "internalType": "uint256",
          "name": "amount",
          "type": "uint256"
        }
      ],
      "name": "investETH",
      "outputs": [],
      "stateMutability": "payable",
      "type": "function"
    },
    {
      "inputs": [],
      "name": "omm",
      "outputs": [
        {
          "internalType": "contract IOmamoriNFT",
          "name": "",
          "type": "address"
        }
      ],
      "stateMutability": "view",
      "type": "function"
    },
    {
      "inputs": [],
      "name": "owner",
      "outputs": [
        {
          "internalType": "address",
          "name": "",
          "type": "address"
        }
      ],
      "stateMutability": "view",
      "type": "function"
    },
    {
      "inputs": [
        {
          "internalType": "uint16",
          "name": "chances",
          "type": "uint16"
        },
        {
          "internalType": "uint256",
          "name": "betAmount",
          "type": "uint256"
        }
      ],
      "name": "playGame",
      "outputs": [
        {
          "components": [
            {
              "internalType": "bool",
              "name": "win",
              "type": "bool"
            },
            {
              "internalType": "uint256",
              "name": "zknReward",
              "type": "uint256"
            },
            {
              "internalType": "uint256",
              "name": "droppedItemTypeId",
              "type": "uint256"
            }
          ],
          "internalType": "struct GameResult",
          "name": "",
          "type": "tuple"
        }
      ],
      "stateMutability": "nonpayable",
      "type": "function"
    },
    {
      "inputs": [
        {
          "internalType": "uint256",
          "name": "maxItems",
          "type": "uint256"
        }
      ],
      "name": "processQueue",
      "outputs": [],
      "stateMutability": "nonpayable",
      "type": "function"
    },
    {
      "inputs": [
        {
          "internalType": "uint256[]",
          "name": "lockIndexes",
          "type": "uint256[]"
        },
        {
          "internalType": "uint256",
          "name": "newDuration",
          "type": "uint256"
        }
      ],
      "name": "reInvestETH",
      "outputs": [],
      "stateMutability": "nonpayable",
      "type": "function"
    },
    {
      "inputs": [],
      "name": "renounceOwnership",
      "outputs": [],
      "stateMutability": "nonpayable",
      "type": "function"
    },
    {
      "inputs": [
        {
          "internalType": "uint256",
          "name": "",
          "type": "uint256"
        }
      ],
      "name": "sellQueue",
      "outputs": [
        {
          "internalType": "address",
          "name": "user",
          "type": "address"
        },
        {
          "internalType": "uint256",
          "name": "amountETH",
          "type": "uint256"
        },
        {
          "internalType": "uint256",
          "name": "amountZKN",
          "type": "uint256"
        },
        {
          "internalType": "uint256",
          "name": "timestamp",
          "type": "uint256"
        },
        {
          "internalType": "uint256",
          "name": "lockIndex",
          "type": "uint256"
        }
      ],
      "stateMutability": "view",
      "type": "function"
    },
    {
      "inputs": [
        {
          "internalType": "uint256",
          "name": "amountZKN",
          "type": "uint256"
        }
      ],
      "name": "sellZKN",
      "outputs": [],
      "stateMutability": "nonpayable",
      "type": "function"
    },
    {
      "inputs": [
        {
          "components": [
            {
              "internalType": "uint16",
              "name": "nftPurchaseFee",
              "type": "uint16"
            },
            {
              "internalType": "uint16",
              "name": "zknBuyFee",
              "type": "uint16"
            },
            {
              "internalType": "uint16",
              "name": "zknSellFee",
              "type": "uint16"
            },
            {
              "internalType": "uint16",
              "name": "gameFee",
              "type": "uint16"
            },
            {
              "internalType": "uint16",
              "name": "performanceFee",
              "type": "uint16"
            }
          ],
          "internalType": "struct FeeSettings",
          "name": "newFees",
          "type": "tuple"
        }
      ],
      "name": "setFees",
      "outputs": [],
      "stateMutability": "nonpayable",
      "type": "function"
    },
    {
      "inputs": [],
      "name": "setZKNPriceInETH",
      "outputs": [],
      "stateMutability": "nonpayable",
      "type": "function"
    },
    {
      "inputs": [],
      "name": "totalZKNFees",
      "outputs": [
        {
          "internalType": "uint256",
          "name": "",
          "type": "uint256"
        }
      ],
      "stateMutability": "view",
      "type": "function"
    },
    {
      "inputs": [
        {
          "internalType": "address",
          "name": "newOwner",
          "type": "address"
        }
      ],
      "name": "transferOwnership",
      "outputs": [],
      "stateMutability": "nonpayable",
      "type": "function"
    },
    {
      "inputs": [
        {
          "internalType": "uint256[]",
          "name": "lockIndexes",
          "type": "uint256[]"
        }
      ],
      "name": "unlockZKN",
      "outputs": [],
      "stateMutability": "nonpayable",
      "type": "function"
    },
    {
      "inputs": [
        {
          "internalType": "address",
          "name": "",
          "type": "address"
        },
        {
          "internalType": "uint256",
          "name": "",
          "type": "uint256"
        }
      ],
      "name": "userLocks",
      "outputs": [
        {
          "internalType": "uint256",
          "name": "amount",
          "type": "uint256"
        },
        {
          "internalType": "uint256",
          "name": "lockEnd",
          "type": "uint256"
        },
        {
          "internalType": "bool",
          "name": "claimed",
          "type": "bool"
        },
        {
          "internalType": "uint256",
          "name": "tokenId",
          "type": "uint256"
        }
      ],
      "stateMutability": "view",
      "type": "function"
    },
    {
      "inputs": [
        {
          "internalType": "address",
          "name": "",
          "type": "address"
        }
      ],
      "name": "userTotalZKNLocked",
      "outputs": [
        {
          "internalType": "uint256",
          "name": "",
          "type": "uint256"
        }
      ],
      "stateMutability": "view",
      "type": "function"
    },
    {
      "inputs": [],
      "name": "vault",
      "outputs": [
        {
          "internalType": "contract IVault",
          "name": "",
          "type": "address"
        }
      ],
      "stateMutability": "view",
      "type": "function"
    },
    {
      "inputs": [
        {
          "internalType": "address",
          "name": "to",
          "type": "address"
        },
        {
          "internalType": "uint256",
          "name": "amountZKN",
          "type": "uint256"
        }
      ],
      "name": "withdrawProfits",
      "outputs": [],
      "stateMutability": "nonpayable",
      "type": "function"
    },
    {
      "inputs": [],
      "name": "zkn",
      "outputs": [
        {
          "internalType": "contract Zenikane",
          "name": "",
          "type": "address"
        }
      ],
      "stateMutability": "view",
      "type": "function"
    },
    {
      "stateMutability": "payable",
      "type": "receive"
    }
  ],
  "bytecode": "0x6101006040523461028657604051601f613abe38819003918201601f19168301916001600160401b0383118484101761025f57808492608094604052833981010312610286578051906001600160a01b03821682036102865760208101516001600160a01b0381168103610286576040820151916001600160a01b03831683036102865760600151926001600160a01b0384168403610286573315610273575f8054336001600160a01b0319821681178355916001600160a01b03909116907f8be0079c531659141344cd1fd0a4f28419497f9722a3daafe3b4186f6b6457e09080a360018055652d79883d200060035560405160a081016001600160401b0381118282101761025f576105dc916080916040526101f481525f602082015261012c60408201526064606082015201526905dc000000000000000069ffff0000000000000000196664012c000000006101f460018060401b0319600554161717161760055560805260a05260c05260e052604051613833908161028b823960805181818160350152818161057901528181610cfe01528181610f08015281816111aa015281816115b20152818161175a01528181611a9401528181611e0c0152818161245401528181612a7101528181612c7001528181612e910152818161304e015281816132e70152613449015260a0518181816104bf01528181610bb8015281816118c30152818161230a01526135d4015260c05181818161044e0152818161052f015261135e015260e0518181816102fa01528181610b6701528181611a21015281816123a101528181612afc01528181612ccc0152612f410152f35b634e487b7160e01b5f52604160045260245ffd5b631e4fbdf760e01b5f525f60045260245ffd5b5f80fdfe6080604052600436101561017a575b3615610018575f80fd5b6100206133f4565b341561016b5760405163313ce56760e01b81527f00000000000000000000000000000000000000000000000000000000000000006001600160a01b031690602081600481855afa801561011e5761008561008b91610094935f9161013c575b50612a38565b346129e1565b600354906129f4565b90811561012d57803b15610129576040516340c10f1960e01b815233600482015260248101839052905f908290604490829084905af1801561011e5761010e575b506040519034825260208201527f8f0e7cb316a36102017f041d4555ca3412cee159e0bc47f62e3f65221eb7da3a60403392a260018055005b5f61011891612710565b5f6100d5565b6040513d5f823e3d90fd5b5f80fd5b63617ab12d60e11b5f5260045ffd5b61015e915060203d602011610164575b6101568183612710565b810190612a1f565b5f61007f565b503d61014c565b631a84bc4160e21b5f5260045ffd5b5f5f3560e01c8063087dcbef146122d65780631776482c146122b85780631ac4caef146122905780631d1f191c1461227257806323dfac6014611dd357806352908d7414611c335780635696f1c014611bfa578063639e36f51461189257806365a5cd14146117295780636e73ba5b1461170c578063715018a6146116b25780637c5757bc146115895780638da5cb5b146115625780638fadef7a1461124c5780639003adfe146112275780639af1d35a146111d9578063a09eb26614611194578063aa33fedb1461111b578063aafc965114610ec3578063b0128d3f14610e8a578063b81e964514610aa6578063b832dcf81461091c578063bcdf7ddc14610900578063d5116755146108d4578063d5d721e4146104ee578063d9ce076d146104a9578063dc9007651461047d578063e533627614610438578063f2fde38b146103b2578063f34057691461034a578063f615911b1461032c5763fbfa77cf146102e5575061000e565b346103295780600319360112610329576040517f00000000000000000000000000000000000000000000000000000000000000006001600160a01b03168152602090f35b80fd5b50346103295780600319360112610329576020600454604051908152f35b503461032957602036600319011261032957600435906002548210156103295760a061037583612759565b50600180831b0381541690600181015490600281015460046003830154920154926040519485526020850152604084015260608301526080820152f35b5034610329576020366003190112610329576103cc61264d565b6103d46136ba565b6001600160a01b031680156104245781546001600160a01b03198116821783556001600160a01b03167f8be0079c531659141344cd1fd0a4f28419497f9722a3daafe3b4186f6b6457e08380a380f35b631e4fbdf760e01b82526004829052602482fd5b50346103295780600319360112610329576040517f00000000000000000000000000000000000000000000000000000000000000006001600160a01b03168152602090f35b5034610329576020366003190112610329576104976133f4565b6104a2600435612f1a565b6001805580f35b50346103295780600319360112610329576040517f00000000000000000000000000000000000000000000000000000000000000006001600160a01b03168152602090f35b503461032957604036600319011261032957610508612748565b60243590826040805161051a816126f5565b828152826020820152015261052d6133f4565b7f00000000000000000000000000000000000000000000000000000000000000006001600160a01b03169182156108c55780156108b6576040516370a0823160e01b81523360048201527f00000000000000000000000000000000000000000000000000000000000000006001600160a01b03169290602081602481875afa80156108ab5783918791610876575b50106107995761ffff604460609260405196879384926304f7f31d60e31b84521660048301528560248301525afa92831561086b57849361080a575b5082518490156106b4575060208301818151106106a55784929161061b9151612a12565b813b156106a1576040516340c10f1960e01b8152336004820152602481019190915291908290604490829084905af180156106965761067d575b50606091505b6001805560408051918051151583526020810151602084015201516040820152f35b610688838092612710565b6106925781610655565b5080fd5b6040513d85823e3d90fd5b8280fd5b638852f1e560e01b8552600485fd5b91906106bf33612e64565b3384526009602052604084205490828110610732575050813b156106a157604051632770a7eb60e21b8152336004820152602481019190915291908290818381604481015b03925af180156106965761071d575b506060915061065b565b610728838092612710565b6106925781610713565b80919394506107a8575b61074591612a12565b90818110610799579061075a81869493612a12565b33845260096020526040842055813b156106a157604051632770a7eb60e21b815233600482015260248101919091529190829081838160448101610704565b63b3fa5d7160e01b8552600485fd5b833b156107fb57604051632770a7eb60e21b81523360048201526024810182905286908181604481838a5af180156107ff576107e6575b505061073c565b816107f091612710565b6107fb57855f6107df565b8580fd5b6040513d84823e3d90fd5b9092506060813d606011610863575b8161082660609383612710565b8101031261085f57604080519161083c836126f5565b610845816127d5565b83526020810151602084015201516040820152915f6105f7565b8380fd5b3d9150610819565b6040513d86823e3d90fd5b9150506020813d6020116108a3575b8161089260209383612710565b81010312610129578290515f6105bb565b3d9150610885565b6040513d88823e3d90fd5b63617ab12d60e11b8452600484fd5b634d9b68a160e11b8452600484fd5b50346103295760203660031901126103295760206108f86108f361264d565b612e64565b604051908152f35b5034610329578060031936011261032957610919612c49565b80f35b50346103295760603660031901126103295761093661264d565b60243560443591828211610a97576001600160a01b0316808452600860205260408420549092908111610a88578161096d91612a12565b9061097782612731565b926109856040519485612710565b828452601f1961099484612731565b01855b818110610a59575050845b838110610a12578486604051918291602083016020845282518091526020604085019301915b8181106109d6575050500390f35b919350916020608060019260608751805183528481015185840152604081015115156040840152015160608201520194019101918493926109c8565b6001908287526008602052610a3d610a3760408920610a3184886129c0565b90612663565b50612ba9565b610a478288612c35565b52610a528187612c35565b50016109a2565b602090604051610a68816126da565b888152888382015288604082015288606082015282828901015201610997565b630655dc2560e01b8452600484fd5b63561ce9bb60e01b8452600484fd5b5034610329576040366003190112610329576004356001600160401b0381116106925736602382011215610692578060040135610ae281612731565b91610af06040519384612710565b818352602083016024819360051b830101913683116107fb57602401905b828210610e7a575050509060243590604051928391633724dd9160e21b835260648301903360048501526060602485015251809152608483019190865b818110610e6157505050604482018390526040919081900381867f00000000000000000000000000000000000000000000000000000000000000006001600160a01b03165af19182156106965783908493610e27575b506040516331a9108f60e11b8152600481018490527f00000000000000000000000000000000000000000000000000000000000000006001600160a01b03169190602081602481865afa9081156108ab578691610df8575b50336001600160a01b0390911603610dc357846024926040519384809263de7fe3e760e01b82528860048301525afa8015610db857610c53928691610d94575b508361018063ffffffff6101208401511692015192612a49565b610c74612710610c6c61ffff60055460401c16846129e1565b048092612a12565b908115610d8557610cf881610cac7fa81038e4430e3e1dd9d12bd052e2ee59b161f3f8c7e707707b2573118a58e9fe936007546129c0565b600755610cbb816004546129c0565b600455604080516060808252600b908201526a706572666f726d616e636560a81b60808201526020810192909252339082015290819060a0820190565b0390a1837f00000000000000000000000000000000000000000000000000000000000000006001600160a01b0316803b15610692576040516340c10f1960e01b8152336004820152602481018490529082908290604490829084905af180156107ff57610d70575b5050610d6c9233613414565b5080f35b81610d7a91612710565b61085f57835f610d60565b63ea6f8f5360e01b8552600485fd5b610db091503d8088833e610da88183612710565b81019061294e565b90505f610c39565b6040513d87823e3d90fd5b60405162461bcd60e51b815260206004820152600d60248201526c2737ba1027232a1037bbb732b960991b6044820152606490fd5b610e1a915060203d602011610e20575b610e128183612710565b8101906127a7565b5f610bf9565b503d610e08565b9250506040823d604011610e59575b81610e4360409383612710565b810103126106a15760208251920151915f610ba1565b3d9150610e36565b8251845286945060209384019390920191600101610b4b565b8135815260209182019101610b0e565b5034610329576020366003190112610329576020906040906001600160a01b03610eb261264d565b168152600883522054604051908152f35b503461032957604036600319011261032957610edd61264d565b60243590610ee96136ba565b60045480831161110c576040516370a0823160e01b81523060048201527f00000000000000000000000000000000000000000000000000000000000000006001600160a01b03169190602081602481865afa80156108ab57859187916110d7575b50106107995783158015919082806110ce575b61103e575b5050610fa3575b506040519182526001600160a01b0316907f124fd12bda4dcb813885ca782fb4ea9350d4f752b1a881cadf8742d8f128bb8e90602090a280f35b60405163a9059cbb60e01b81526001600160a01b038316600482015260248101849052906020908290604490829088905af1801561086b5715610f69576020813d602011611036575b81610ff960209383612710565b8101031261085f577f124fd12bda4dcb813885ca782fb4ea9350d4f752b1a881cadf8742d8f128bb8e9161102e6020926127d5565b509150610f69565b3d9150610fec565b670de0b6b3a7640000860290868204670de0b6b3a76400001417156110ba57816110a861106f6110b09489946129f4565b61108f600654670de0b6b3a764000061108884836129e1565b0490612a12565b600655670de0b6b3a764000061108860075492836129e1565b600755612a12565b6004555f80610f62565b634e487b7160e01b87526011600452602487fd5b50811515610f5d565b9150506020813d602011611104575b816110f360209383612710565b81010312610129578490515f610f4a565b3d91506110e6565b63b3fa5d7160e01b8452600484fd5b50346103295760403660031901126103295761113561264d565b6001600160a01b03168152600860205260408120805460243592908310156103295760806111638484612663565b50805490600181015490600360ff600283015416910154916040519384526020840152151560408301526060820152f35b50346103295780600319360112610329576040517f00000000000000000000000000000000000000000000000000000000000000006001600160a01b03168152602090f35b503461032957806003193601126103295760a060055461ffff604051918181168352818160101c166020840152818160201c166040840152818160301c16606084015260401c166080820152f35b5034610329578060031936011261032957604060065460075482519182526020820152f35b50346103295760a0366003190112610329576112666136ba565b606461ffff611273612be0565b1610801561154c575b6115205760c861ffff61128d612bf1565b16116114f05761012c61ffff6112a1612c02565b16116114bf576101f461ffff6112b5612c13565b1611611493576101f461ffff6112c9612c24565b161161145f5761ffff6112da612be0565b166005549063ffff00006112ec612bf1565b60101b169065ffff00000000611300612c02565b60201b169067ffff000000000000611316612c13565b60301b169261ffff60401b611329612c24565b60401b169461ffff60401b199267ffff000000000000199165ffffffffffff1916171617161717176005558060018060a01b037f000000000000000000000000000000000000000000000000000000000000000016611386612c13565b813b1561145b5761ffff60248492836040519586948593633668788160e11b85521660048401525af180156107ff57611446575b505060405161ffff6113ca612748565b16815260243561ffff81168091036106a157602082015260443561ffff81168091036106a157604082015260643561ffff81168091036106a157606082015260843561ffff81168091036106a1578160a09160807f961bd70a978353f7f89d4ded74bb201ea2d3bfe2e234a238d2d9b006a9430fd2940152a180f35b8161145091612710565b61032957805f6113ba565b5050fd5b60405163132e0b2160e31b815260206004820152600b60248201526a506572666f726d616e636560a81b6044820152606490fd5b606460405163132e0b2160e31b815260206004820152600460248201526347616d6560e01b6044820152fd5b60405163132e0b2160e31b81526020600482015260086024820152671692d3881cd95b1b60c21b6044820152606490fd5b60405163132e0b2160e31b81526020600482015260076024820152665a4b4e2062757960c81b6044820152606490fd5b60405163132e0b2160e31b815260206004820152600360248201526213919560ea1b6044820152606490fd5b506107d061ffff61155b612be0565b161161127c565b5034610329578060031936011261032957546040516001600160a01b039091168152602090f35b50806003193601126103295761159d6133f4565b34156116a35760405163313ce56760e01b81527f00000000000000000000000000000000000000000000000000000000000000006001600160a01b031690602081600481855afa80156106965761008561008b9161160193869161013c5750612a38565b908115611694578083913b15610692576040516340c10f1960e01b8152336004820152602481018490529082908290604490829084905af180156107ff5761167f575b50506040519034825260208201527f8f0e7cb316a36102017f041d4555ca3412cee159e0bc47f62e3f65221eb7da3a60403392a26001805580f35b8161168991612710565b61069257815f611644565b63617ab12d60e11b8352600483fd5b631a84bc4160e21b8152600490fd5b50346103295780600319360112610329576116cb6136ba565b80546001600160a01b03198116825581906001600160a01b03167f8be0079c531659141344cd1fd0a4f28419497f9722a3daafe3b4186f6b6457e08280a380f35b503461032957806003193601126103295760206040516127108152f35b5034610329578060031936011261032957806020604051611749816126bf565b828152015260045460018060a01b037f000000000000000000000000000000000000000000000000000000000000000016916040516370a0823160e01b8152306004820152602081602481875afa9081156107ff57908391839161185d575b50106117ea575060809150805b6040516117c1816126bf565b600654815260075491602082019283526040519384526020840152516040830152516060820152f35b6020602493604051948580926370a0823160e01b82523060048301525afa908115611851579061181e575b608092506117b5565b506020823d602011611849575b8161183860209383612710565b810103126101295760809151611815565b3d915061182b565b604051903d90823e3d90fd5b9150506020813d60201161188a575b8161187960209383612710565b81010312610129578290515f6117a8565b3d915061186c565b506040366003190112610329576004356024356118ad6133f4565b60405163c19a4ef560e01b8152600481018390527f00000000000000000000000000000000000000000000000000000000000000006001600160a01b03168482602481845afa918215610db8578592611bb7575b50608082015115611ba85761010082015193843410611b995760405163f6a4a3fd60e01b81523360048201526024810191909152906020908290604490829089905af1908115610db8578591611b67575b5061195d8434612a12565b8592816119a9575b50506040805194855260208501919091528301525033907f7a7a51e0b1159ac2a9d1849791fc910294cfc682d75c78a81c6eccd46c4bc68e90606090a26001805580f35b6119ca9192935061018063ffffffff61012083015116910151908584612a49565b6119e3612710610c6c61ffff60055460401c16846129e1565b908115611b5857611a1b81610cac7fa81038e4430e3e1dd9d12bd052e2ee59b161f3f8c7e707707b2573118a58e9fe936007546129c0565b0390a1857f00000000000000000000000000000000000000000000000000000000000000006001600160a01b0316803b156106925760405163fc1adfdf60e01b81523360048201526024810186905260448101879052606481018590529082908290608490829088905af180156107ff57611b43575b507f00000000000000000000000000000000000000000000000000000000000000006001600160a01b0316803b15610692576040516340c10f1960e01b8152336004820152602481018490529082908290604490829084905af180156107ff57611b2e575b50507f7a7a51e0b1159ac2a9d1849791fc910294cfc682d75c78a81c6eccd46c4bc68e93611b25918433613414565b50905f80611965565b81611b3891612710565b6107fb57855f611af6565b81611b4d91612710565b6107fb57855f611a91565b63ea6f8f5360e01b8752600487fd5b90506020813d602011611b91575b81611b8260209383612710565b8101031261012957515f611952565b3d9150611b75565b631a84bc4160e21b8652600486fd5b633c1c65a160e21b8552600485fd5b9091503d8086833e611bc98183612710565b81016020828203126107fb5781516001600160401b038111611bf657611bef9201612843565b905f611901565b8680fd5b5034610329576020366003190112610329576020906040906001600160a01b03611c2261264d565b168152600983522054604051908152f35b5034610329576020366003190112610329576004356001600160401b0381116106925736602382011215610692578060040135906001600160401b0382116106a1573660248360051b830101116106a157611c8c6133f4565b8115611dc45760328211611db5578290835b83811015611d525760248160051b8301013533865260086020526040862054811015611d4357611cd990338752600860205260408720612663565b50611ce381612ba9565b805115159081611d36575b81611d27575b50611d03575b50600101611c9e565b92906002611d156001938654906129c0565b9401805460ff19168317905590611cfa565b6020915001514210155f611cf4565b6040810151159150611cee565b6303f6666760e51b8652600486fd5b84838015611da657338252600960205260408220611d71828254612a12565b90556040519081527f9e91543a0a1b756d1e8ee3418c19a17039c361eb963f01e48e7c2912d1690c0d60203392a26001805580f35b63e8dafed760e01b8252600482fd5b637a6dcc2760e11b8352600483fd5b63b3da792d60e01b8352600483fd5b50346103295760203660031901126103295760043590611df16133f4565b8115612263576040516370a0823160e01b81523360048201527f00000000000000000000000000000000000000000000000000000000000000006001600160a01b031690602081602481855afa90811561069657908491849161222e575b50106121ea57611e81611e78612710611e7161ffff60055460201c16876129e1565b0485612a12565b600354906129e1565b60405163313ce56760e01b8152602081600481865afa90811561086b57611eb99291611eb391869161013c5750612a38565b906129f4565b90811561169457478211611f775791828194933b1561069257604051632770a7eb60e21b8152336004820152602481018590529082908290604490829084905af180156107ff57611f62575b5080808084335af1611f15612b7a565b5015611f535760405191825260208201527f678c7e63a95c77ab373c8a741ef637e537cf8f15c439f3e78c1404ca3491966860403392a26001805580f35b63b12d13eb60e01b8352600483fd5b81611f6c91612710565b6106a157825f611f05565b6020602491604051928380926370a0823160e01b82523360048301525afa9081156106965790849184916121f9575b50106121ea57338252600860205260408220549233835260086020526040832062093a804201908142116121d65760405190611fe1826126da565b8382526020820183815260408301908782526060840192888452805490600160401b8210156121c2579061201a91600182018155612663565b9490946121ae579161204b9160039493518655516001860155511515600285019060ff801983541691151516179055565b519101553384526009602052604084206120668382546129c0565b90556040519084825285602083015282604083015260608201527f57dfc0d0ce6b1551ace6ba23ccdc4e57a7d252091089a77fb286745fda252e6a60803392a26002549361271085101561219f57604051946120c186612690565b338652602086019284845260408701908152606087019142835260808801938452600160401b81101561218b578060016120fe9201600255612759565b94909461217757965184546001600160a01b0319166001600160a01b03919091161784559551600184015594516002830155935160038201559251600493909301929092556040519182529033907f9274959898b5fb388c0096bedaef8308659b22f68c71b36c133f12c9b9c9a32890602090a26104a2565b634e487b7160e01b87526004879052602487fd5b634e487b7160e01b87526041600452602487fd5b638acb5f2760e01b8452600484fd5b634e487b7160e01b89526004899052602489fd5b634e487b7160e01b8a52604160045260248afd5b634e487b7160e01b85526011600452602485fd5b63b3fa5d7160e01b8252600482fd5b9150506020813d602011612226575b8161221560209383612710565b81010312610129578390515f611fa6565b3d9150612208565b9150506020813d60201161225b575b8161224a60209383612710565b81010312610129578390515f611e4f565b3d915061223d565b63617ab12d60e11b8152600490fd5b50346103295780600319360112610329576020600354604051908152f35b50346103295760803660031901126103295760206108f8606435604435602435600435612a49565b5034610329578060031936011261032957602060405162093a808152f35b506060366003190112610129576004356024356044356122f46133f4565b6040516331a9108f60e11b8152600481018490527f00000000000000000000000000000000000000000000000000000000000000006001600160a01b031690602081602481855afa90811561011e575f9161262e575b50336001600160a01b039091160361261f5760405163de7fe3e760e01b815260048101859052915f83602481855afa92831561011e575f93612601575b5060405163291d335760e21b81523360048201525f9390927f00000000000000000000000000000000000000000000000000000000000000006001600160a01b03169190602085602481865afa801561011e5789955f916125c8575b506123f0859134906129c0565b10156124f5575b5050803b156106a15760405163fc1adfdf60e01b81523360048201526024810187905260448101869052606481019290925282908290608490829034905af180156107ff576124e0575b505080612451575b836001805580f35b837f00000000000000000000000000000000000000000000000000000000000000006001600160a01b0316803b15610692576040516340c10f1960e01b8152336004820152602481018490529082908290604490829084905af180156107ff576124cb575b50506124c29233613414565b505f8080612449565b816124d591612710565b61085f57835f6124b6565b816124ea91612710565b61085f57835f612441565b919450919250803b15610129575f8091602460405180948193632da35f4560e21b83528b60048401525af1801561011e576125b1575b508061018063ffffffff61012061254a94015116910151908534612a49565b9161256c61271061256461ffff60055460401c16866129e1565b048094612a12565b928315611b5857907fa81038e4430e3e1dd9d12bd052e2ee59b161f3f8c7e707707b2573118a58e9fe6125a783610cac8a96956007546129c0565b0390a15f806123f7565b6125be9196505f90612710565b5f9461254a61252b565b9550506020853d6020116125f9575b816125e460209383612710565b810103126101295793518894906123f06123e3565b3d91506125d7565b6126169193503d805f833e610da88183612710565b9050915f612387565b631022318760e21b5f5260045ffd5b612647915060203d602011610e2057610e128183612710565b5f61234a565b600435906001600160a01b038216820361012957565b805482101561267c575f5260205f209060021b01905f90565b634e487b7160e01b5f52603260045260245ffd5b60a081019081106001600160401b038211176126ab57604052565b634e487b7160e01b5f52604160045260245ffd5b604081019081106001600160401b038211176126ab57604052565b608081019081106001600160401b038211176126ab57604052565b606081019081106001600160401b038211176126ab57604052565b90601f801991011681019081106001600160401b038211176126ab57604052565b6001600160401b0381116126ab5760051b60200190565b6004359061ffff8216820361012957565b60025481101561267c5760025f52600560205f20910201905f90565b6002541561267c5760025f9081527f405787fa12a823e0f2b7631cc41b3ba8828b3321ca811111fa75cd3aa3bb5ace91565b9081602091031261012957516001600160a01b03811681036101295790565b519061ffff8216820361012957565b5190811515820361012957565b6001600160401b0381116126ab57601f01601f191660200190565b81601f8201121561012957805190612814826127e2565b926128226040519485612710565b8284526020838301011161012957815f9260208093018386015e8301015290565b9190916101a08184031261012957604051906101a082018281106001600160401b038211176126ab57604052819381516001600160401b038111610129578161288d9184016127fd565b835261289b602083016127c6565b60208401526040820151906001600160401b038211610129576128bf9183016127fd565b60408301526128d0606082016127d5565b60608301526128e1608082016127d5565b608083015260a081015160a083015260c081015160c083015260e081015160e083015261010081015161010083015261012081015163ffffffff81168103610129576101809182916101208501526101408101516101408501526101608101516101608501520151910152565b91909180830360a08112610129576080136101295760405161296f816126da565b8151815261297f602083016127c6565b60208201526040820151604082015261299a606083016127d5565b60608201529260808201516001600160401b038111610129576129bd9201612843565b90565b919082018092116129cd57565b634e487b7160e01b5f52601160045260245ffd5b818102929181159184041417156129cd57565b81156129fe570490565b634e487b7160e01b5f52601260045260245ffd5b919082039182116129cd57565b90816020910312610129575160ff811681036101295790565b60ff16604d81116129cd57600a0a90565b612a5b92612a56916129e1565b6129e1565b60405163313ce56760e01b8152906020826004817f00000000000000000000000000000000000000000000000000000000000000006001600160a01b03165afa91821561011e57612abc92612ab6915f9161013c5750612a38565b906129e1565b6003548064496cebb800029064496cebb8008204036129cd57612ade916129f4565b604051637c57bda960e11b81526004810192909252906020816024817f00000000000000000000000000000000000000000000000000000000000000006001600160a01b03165afa90811561011e575f91612b46575b50612b4290612710926129e1565b0490565b90506020813d602011612b72575b81612b6160209383612710565b810103126101295751612710612b34565b3d9150612b54565b3d15612ba4573d90612b8b826127e2565b91612b996040519384612710565b82523d5f602084013e565b606090565b90604051612bb6816126da565b606060038294805484526001810154602085015260ff600282015416151560408501520154910152565b60043561ffff811681036101295790565b60243561ffff811681036101295790565b60443561ffff811681036101295790565b60643561ffff811681036101295790565b60843561ffff811681036101295790565b805182101561267c5760209160051b010190565b5f546001600160a01b031633141580612e5a575b612e15576040516318160ddd60e01b81527f00000000000000000000000000000000000000000000000000000000000000006001600160a01b0316602082600481845afa91821561011e575f92612de1575b508115612dd257604051630be8227760e41b8152916020836004817f00000000000000000000000000000000000000000000000000000000000000006001600160a01b03165afa92831561011e575f93612d9d575b506020612d1460049447906129c0565b926040519485809263313ce56760e01b82525afa92831561011e57612d7682612d71612d6b7fc3d055a4e269dba7e6593a1799e3ab3efda3f654c793dd962926ec03e11b710397612d98955f9161013c5750612a38565b866129e1565b6129f4565b9182600355604051938493846040919493926060820195825260208201520152565b0390a1565b92506020833d602011612dca575b81612db860209383612710565b81010312610129579151916020612d04565b3d9150612dab565b63bf76754960e01b5f5260045ffd5b9091506020813d602011612e0d575b81612dfd60209383612710565b810103126101295751905f612caf565b3d9150612df0565b60405162461bcd60e51b815260206004820152601f60248201527f4f6e6c79206f776e6572206f7220636f6e74726163742063616e2063616c6c006044820152606490fd5b5030331415612c5d565b6040516370a0823160e01b81526001600160a01b03918216600482018190529091602090839060249082907f0000000000000000000000000000000000000000000000000000000000000000165afa91821561011e575f92612ee6575b505f52600960205260405f20548082115f14612ee0576129bd91612a12565b50505f90565b9091506020813d602011612f12575b81612f0260209383612710565b810103126101295751905f612ec1565b3d9150612ef5565b600254156133f157604051630ccbedbb60e11b81525f9283929091839190602081600481867f00000000000000000000000000000000000000000000000000000000000000006001600160a01b03165af190816133c2575b506133b957612f7f612b7a565b507fc09799d841f7a7711185eeef0f3a057b51bfd06567bc97cfbbea0af608d6fd8f606060405160208152601f60208201527f68617276657374206661696c65642028756e6b6e6f776e20726561736f6e29006040820152a1939290925b6002541515806133b0575b156133a657612ff5612775565b5060405161300281612690565b81546001600160a01b031680825260018301546020830181815260028501546040850181815260038701546060870152600490960154608086019081529993919290919047106132be577f00000000000000000000000000000000000000000000000000000000000000006001600160a01b031691823b1561012957604051632770a7eb60e21b81526001600160a01b039290921660048301526024820152905f908290604490829084905af190816132ae575b506132a7575f5b1561324f575f80808060018060a01b038751168551905af16130dd612b7a565b5015613240577f678c7e63a95c77ab373c8a741ef637e537cf8f15c439f3e78c1404ca34919668926131366131226131196040958851906129c0565b988451906129c0565b82519a51909a6001600160a01b0316613772565b5193519051825191825260208201526001600160a01b0390931692a25b6002545f1981019081116129cd5761316a90612759565b50613173612775565b9190916131ce578082036131f5575b505060025480156131e1575f190161319981612759565b6131ce576004815f80935582600182015582600282015582600382015501556002555f1981146129cd57600101929092612fdd565b634e487b7160e01b5f525f60045260245ffd5b634e487b7160e01b5f52603160045260245ffd5b805482546001600160a01b0319166001600160a01b03919091161782556001808201549083015560028082015490830155600380820154908301556004908101549101555f80613182565b63b12d13eb60e01b5f5260045ffd5b5093957f9802fc9c1769bac54bba52b34b510698b17c2f03e6054ba4080b8b9e934e0ee79161328c60209260018060a01b038351169051906136e0565b5192516040519081526001600160a01b0390931692a2613153565b60016130bd565b5f6132b891612710565b5f6130b6565b50505094965050509092505b6127106132e061ffff60055460201c16846129e1565b0460011c927f00000000000000000000000000000000000000000000000000000000000000006001600160a01b0316803b15610129576040516340c10f1960e01b815233600482015260248101959095525f908590604490829084905af190811561011e577f1ca00514b9bf4c911b52e6dabe932a971ba14609164abb78dd6edf0456bdbd3e94612d9892613396575b50613379612c49565b604051938493846040919493926060820195825260208201520152565b5f6133a091612710565b5f613370565b90929193506132ca565b50848110612fe8565b93929092612fdd565b6020813d6020116133e9575b816133db60209383612710565b810103126101295751612f72565b3d91506133ce565b50565b600260015414613405576002600155565b633ee5aeb560e01b5f5260045ffd5b919092836135b9575b6040516370a0823160e01b81526001600160a01b039384166004820181905293602090829060249082907f0000000000000000000000000000000000000000000000000000000000000000165afa801561011e5783915f91613584575b5010613575575f838152600860205260409020805494909261349c83426129c0565b604051936134a9856126da565b8285526020850191825260408501915f835260608601968588528054600160401b8110156126ab576134e091600182018155612663565b9190916131ce577f57dfc0d0ce6b1551ace6ba23ccdc4e57a7d252091089a77fb286745fda252e6a9761353761355a9560039360809a518655516001860155511515600285019060ff801983541691151516179055565b51910155865f52600960205260405f206135528482546129c0565b9055426129c0565b9060405192835286602084015260408301526060820152a290565b63b3fa5d7160e01b5f5260045ffd5b9150506020813d6020116135b1575b816135a060209383612710565b81010312610129578290515f61347a565b3d9150613593565b60405163de7fe3e760e01b8152600481018590525f816024817f00000000000000000000000000000000000000000000000000000000000000006001600160a01b03165afa90811561011e575f9161369e575b50821561012d5760c081015182106136635760e0015181111561341d5760405163132e0b2160e31b81526020600482015260116024820152704475726174696f6e20746f6f206c6f6e6760781b6044820152606490fd5b60405163132e0b2160e31b8152602060048201526012602482015271111d5c985d1a5bdb881d1bdbc81cda1bdc9d60721b6044820152606490fd5b6136b291503d805f833e610da88183612710565b90505f61360c565b5f546001600160a01b031633036136cd57565b63118cdaa760e01b5f523360045260245ffd5b6001600160a01b03165f8181526008602052604090205490919081101561376e5760206137387f9e91543a0a1b756d1e8ee3418c19a17039c361eb963f01e48e7c2912d1690c0d92845f526008835260405f20612663565b505f81549160028101600160ff198254161790558582526009845260408220613762848254612a12565b905555604051908152a2565b5050565b6001600160a01b03165f8181526008602052604090205490919081101561376e5760206137ca7f9e91543a0a1b756d1e8ee3418c19a17039c361eb963f01e48e7c2912d1690c0d92845f526008835260405f20612663565b50600281549101600160ff19825416179055835f526009825260405f206137f2828254612a12565b9055604051908152a256fea26469706673582212206286f02c54a0870a6cbda3db91660315be192dde90e6bd511f8effc865736a7c64736f6c634300081c0033",
  "linkReferences": {},
  "deployedLinkReferences": {},
  "immutableReferences": {
    "11682": [
      {
        "length": 32,
        "start": 53
      },
      {
        "length": 32,
        "start": 1401
      },
      {
        "length": 32,
        "start": 3326
      },
      {
        "length": 32,
        "start": 3848
      },
      {
        "length": 32,
        "start": 4522
      },
      {
        "length": 32,
        "start": 5554
      },
      {
        "length": 32,
        "start": 5978
      },
      {
        "length": 32,
        "start": 6804
      },
      {
        "length": 32,
        "start": 7692
      },
      {
        "length": 32,
        "start": 9300
      },
      {
        "length": 32,
        "start": 10865
      },
      {
        "length": 32,
        "start": 11376
      },
      {
        "length": 32,
        "start": 11921
      },
      {
        "length": 32,
        "start": 12366
      },
      {
        "length": 32,
        "start": 13031
      },
      {
        "length": 32,
        "start": 13385
      }
    ],
    "11685": [
      {
        "length": 32,
        "start": 1215
      },
      {
        "length": 32,
        "start": 3000
      },
      {
        "length": 32,
        "start": 6339
      },
      {
        "length": 32,
        "start": 8970
      },
      {
        "length": 32,
        "start": 13780
      }
    ],
    "11688": [
      {
        "length": 32,
        "start": 1102
      },
      {
        "length": 32,
        "start": 1327
      },
      {
        "length": 32,
        "start": 4958
      }
    ],
    "11691": [
      {
        "length": 32,
        "start": 762
      },
      {
        "length": 32,
        "start": 2919
      },
      {
        "length": 32,
        "start": 6689
      },
      {
        "length": 32,
        "start": 9121
      },
      {
        "length": 32,
        "start": 11004
      },
      {
        "length": 32,
        "start": 11468
      },
      {
        "length": 32,
        "start": 12097
      }
    ]
  },
  "inputSourceName": "project/contracts/ZenbuLoot.sol",
  "buildInfoId": "solc-0_8_28-e3f5b2e19080d76ce25cb914cc938e032906e967"
}