{
  "_format": "hh3-artifact-1",
  "contractName": "Zenikane",
  "sourceName": "contracts/Zenikane.sol",
  "abi": [
    {
      "inputs": [],
      "stateMutability": "nonpayable",
      "type": "constructor"
    },
    {
      "inputs": [],
      "name": "AmountTooSmall",
      "type": "error"
    },
    {
      "inputs": [
        {
          "internalType": "address",
          "name": "spender",
          "type": "address"
        },
        {
          "internalType": "uint256",
          "name": "allowance",
          "type": "uint256"
        },
        {
          "internalType": "uint256",
          "name": "needed",
          "type": "uint256"
        }
      ],
      "name": "ERC20InsufficientAllowance",
      "type": "error"
    },
    {
      "inputs": [
        {
          "internalType": "address",
          "name": "sender",
          "type": "address"
        },
        {
          "internalType": "uint256",
          "name": "balance",
          "type": "uint256"
        },
        {
          "internalType": "uint256",
          "name": "needed",
          "type": "uint256"
        }
      ],
      "name": "ERC20InsufficientBalance",
      "type": "error"
    },
    {
      "inputs": [
        {
          "internalType": "address",
          "name": "approver",
          "type": "address"
        }
      ],
      "name": "ERC20InvalidApprover",
      "type": "error"
    },
    {
      "inputs": [
        {
          "internalType": "address",
          "name": "receiver",
          "type": "address"
        }
      ],
      "name": "ERC20InvalidReceiver",
      "type": "error"
    },
    {
      "inputs": [
        {
          "internalType": "address",
          "name": "sender",
          "type": "address"
        }
      ],
      "name": "ERC20InvalidSender",
      "type": "error"
    },
    {
      "inputs": [
        {
          "internalType": "address",
          "name": "spender",
          "type": "address"
        }
      ],
      "name": "ERC20InvalidSpender",
      "type": "error"
    },
    {
      "inputs": [],
      "name": "InsufficientZKNBalance",
      "type": "error"
    },
    {
      "inputs": [
        {
          "internalType": "string",
          "name": "message",
          "type": "string"
        }
      ],
      "name": "InvalidFeeRange",
      "type": "error"
    },
    {
      "inputs": [],
      "name": "InvalidLockIndex",
      "type": "error"
    },
    {
      "inputs": [],
      "name": "InvalidRange",
      "type": "error"
    },
    {
      "inputs": [],
      "name": "NoClaimableZKN",
      "type": "error"
    },
    {
      "inputs": [],
      "name": "NoLocksSpecified",
      "type": "error"
    },
    {
      "inputs": [
        {
          "internalType": "address",
          "name": "owner",
          "type": "address"
        }
      ],
      "name": "OwnableInvalidOwner",
      "type": "error"
    },
    {
      "inputs": [
        {
          "internalType": "address",
          "name": "account",
          "type": "address"
        }
      ],
      "name": "OwnableUnauthorizedAccount",
      "type": "error"
    },
    {
      "inputs": [],
      "name": "RangeOutOfBounds",
      "type": "error"
    },
    {
      "inputs": [],
      "name": "ReentrancyGuardReentrantCall",
      "type": "error"
    },
    {
      "inputs": [],
      "name": "TooManyLocks",
      "type": "error"
    },
    {
      "anonymous": false,
      "inputs": [
        {
          "indexed": true,
          "internalType": "address",
          "name": "owner",
          "type": "address"
        },
        {
          "indexed": true,
          "internalType": "address",
          "name": "spender",
          "type": "address"
        },
        {
          "indexed": false,
          "internalType": "uint256",
          "name": "value",
          "type": "uint256"
        }
      ],
      "name": "Approval",
      "type": "event"
    },
    {
      "anonymous": false,
      "inputs": [
        {
          "indexed": true,
          "internalType": "address",
          "name": "previousOwner",
          "type": "address"
        },
        {
          "indexed": true,
          "internalType": "address",
          "name": "newOwner",
          "type": "address"
        }
      ],
      "name": "OwnershipTransferred",
      "type": "event"
    },
    {
      "anonymous": false,
      "inputs": [
        {
          "indexed": true,
          "internalType": "address",
          "name": "from",
          "type": "address"
        },
        {
          "indexed": true,
          "internalType": "address",
          "name": "to",
          "type": "address"
        },
        {
          "indexed": false,
          "internalType": "uint256",
          "name": "value",
          "type": "uint256"
        }
      ],
      "name": "Transfer",
      "type": "event"
    },
    {
      "anonymous": false,
      "inputs": [
        {
          "indexed": true,
          "internalType": "address",
          "name": "user",
          "type": "address"
        },
        {
          "indexed": false,
          "internalType": "uint256",
          "name": "tokenId",
          "type": "uint256"
        },
        {
          "indexed": false,
          "internalType": "uint256",
          "name": "lockIndex",
          "type": "uint256"
        },
        {
          "indexed": false,
          "internalType": "uint256",
          "name": "amount",
          "type": "uint256"
        },
        {
          "indexed": false,
          "internalType": "uint256",
          "name": "lockEnd",
          "type": "uint256"
        }
      ],
      "name": "ZKNLocked",
      "type": "event"
    },
    {
      "anonymous": false,
      "inputs": [
        {
          "indexed": true,
          "internalType": "address",
          "name": "user",
          "type": "address"
        },
        {
          "indexed": false,
          "internalType": "uint256",
          "name": "amount",
          "type": "uint256"
        }
      ],
      "name": "ZKNUnlocked",
      "type": "event"
    },
    {
      "inputs": [
        {
          "internalType": "address",
          "name": "owner",
          "type": "address"
        },
        {
          "internalType": "address",
          "name": "spender",
          "type": "address"
        }
      ],
      "name": "allowance",
      "outputs": [
        {
          "internalType": "uint256",
          "name": "",
          "type": "uint256"
        }
      ],
      "stateMutability": "view",
      "type": "function"
    },
    {
      "inputs": [
        {
          "internalType": "address",
          "name": "spender",
          "type": "address"
        },
        {
          "internalType": "uint256",
          "name": "value",
          "type": "uint256"
        }
      ],
      "name": "approve",
      "outputs": [
        {
          "internalType": "bool",
          "name": "",
          "type": "bool"
        }
      ],
      "stateMutability": "nonpayable",
      "type": "function"
    },
    {
      "inputs": [
        {
          "internalType": "address",
          "name": "account",
          "type": "address"
        }
      ],
      "name": "balanceOf",
      "outputs": [
        {
          "internalType": "uint256",
          "name": "",
          "type": "uint256"
        }
      ],
      "stateMutability": "view",
      "type": "function"
    },
    {
      "inputs": [
        {
          "internalType": "address",
          "name": "from",
          "type": "address"
        },
        {
          "internalType": "uint256",
          "name": "amount",
          "type": "uint256"
        }
      ],
      "name": "burn",
      "outputs": [],
      "stateMutability": "nonpayable",
      "type": "function"
    },
    {
      "inputs": [],
      "name": "decimals",
      "outputs": [
        {
          "internalType": "uint8",
          "name": "",
          "type": "uint8"
        }
      ],
      "stateMutability": "pure",
      "type": "function"
    },
    {
      "inputs": [
        {
          "internalType": "address",
          "name": "user",
          "type": "address"
        }
      ],
      "name": "getAvailableZKN",
      "outputs": [
        {
          "internalType": "uint256",
          "name": "",
          "type": "uint256"
        }
      ],
      "stateMutability": "view",
      "type": "function"
    },
    {
      "inputs": [
        {
          "internalType": "address",
          "name": "user",
          "type": "address"
        }
      ],
      "name": "getLockLength",
      "outputs": [
        {
          "internalType": "uint256",
          "name": "",
          "type": "uint256"
        }
      ],
      "stateMutability": "view",
      "type": "function"
    },
    {
      "inputs": [
        {
          "internalType": "address",
          "name": "user",
          "type": "address"
        },
        {
          "internalType": "uint256",
          "name": "start",
          "type": "uint256"
        },
        {
          "internalType": "uint256",
          "name": "end",
          "type": "uint256"
        }
      ],
      "name": "getLocksRange",
      "outputs": [
        {
          "components": [
            {
              "internalType": "uint256",
              "name": "amount",
              "type": "uint256"
            },
            {
              "internalType": "uint256",
              "name": "lockEnd",
              "type": "uint256"
            },
            {
              "internalType": "bool",
              "name": "claimed",
              "type": "bool"
            },
            {
              "internalType": "uint256",
              "name": "tokenId",
              "type": "uint256"
            }
          ],
          "internalType": "struct Zenikane.ZKNLock[]",
          "name": "",
          "type": "tuple[]"
        }
      ],
      "stateMutability": "view",
      "type": "function"
    },
    {
      "inputs": [
        {
          "internalType": "address",
          "name": "_ownerContract",
          "type": "address"
        }
      ],
      "name": "initialize",
      "outputs": [],
      "stateMutability": "nonpayable",
      "type": "function"
    },
    {
      "inputs": [
        {
          "internalType": "address",
          "name": "user",
          "type": "address"
        },
        {
          "internalType": "uint256",
          "name": "tokenId",
          "type": "uint256"
        },
        {
          "internalType": "uint256",
          "name": "amount",
          "type": "uint256"
        },
        {
          "internalType": "uint256",
          "name": "duration",
          "type": "uint256"
        }
      ],
      "name": "lockZKN",
      "outputs": [
        {
          "internalType": "uint256",
          "name": "",
          "type": "uint256"
        }
      ],
      "stateMutability": "nonpayable",
      "type": "function"
    },
    {
      "inputs": [
        {
          "internalType": "address",
          "name": "to",
          "type": "address"
        },
        {
          "internalType": "uint256",
          "name": "amount",
          "type": "uint256"
        }
      ],
      "name": "mint",
      "outputs": [],
      "stateMutability": "nonpayable",
      "type": "function"
    },
    {
      "inputs": [],
      "name": "name",
      "outputs": [
        {
          "internalType": "string",
          "name": "",
          "type": "string"
        }
      ],
      "stateMutability": "view",
      "type": "function"
    },
    {
      "inputs": [],
      "name": "owner",
      "outputs": [
        {
          "internalType": "address",
          "name": "",
          "type": "address"
        }
      ],
      "stateMutability": "view",
      "type": "function"
    },
    {
      "inputs": [],
      "name": "ownerContract",
      "outputs": [
        {
          "internalType": "contract ZenbuLoot",
          "name": "",
          "type": "address"
        }
      ],
      "stateMutability": "view",
      "type": "function"
    },
    {
      "inputs": [],
      "name": "renounceOwnership",
      "outputs": [],
      "stateMutability": "nonpayable",
      "type": "function"
    },
    {
      "inputs": [
        {
          "internalType": "address",
          "name": "user",
          "type": "address"
        },
        {
          "internalType": "uint256",
          "name": "lockIndex",
          "type": "uint256"
        },
        {
          "internalType": "bool",
          "name": "success",
          "type": "bool"
        }
      ],
      "name": "singleUnlockZKN",
      "outputs": [],
      "stateMutability": "nonpayable",
      "type": "function"
    },
    {
      "inputs": [],
      "name": "symbol",
      "outputs": [
        {
          "internalType": "string",
          "name": "",
          "type": "string"
        }
      ],
      "stateMutability": "view",
      "type": "function"
    },
    {
      "inputs": [],
      "name": "totalSupply",
      "outputs": [
        {
          "internalType": "uint256",
          "name": "",
          "type": "uint256"
        }
      ],
      "stateMutability": "view",
      "type": "function"
    },
    {
      "inputs": [
        {
          "internalType": "address",
          "name": "to",
          "type": "address"
        },
        {
          "internalType": "uint256",
          "name": "amount",
          "type": "uint256"
        }
      ],
      "name": "transfer",
      "outputs": [
        {
          "internalType": "bool",
          "name": "",
          "type": "bool"
        }
      ],
      "stateMutability": "nonpayable",
      "type": "function"
    },
    {
      "inputs": [
        {
          "internalType": "address",
          "name": "from",
          "type": "address"
        },
        {
          "internalType": "address",
          "name": "to",
          "type": "address"
        },
        {
          "internalType": "uint256",
          "name": "amount",
          "type": "uint256"
        }
      ],
      "name": "transferFrom",
      "outputs": [
        {
          "internalType": "bool",
          "name": "",
          "type": "bool"
        }
      ],
      "stateMutability": "nonpayable",
      "type": "function"
    },
    {
      "inputs": [
        {
          "internalType": "address",
          "name": "from",
          "type": "address"
        },
        {
          "internalType": "address",
          "name": "to",
          "type": "address"
        },
        {
          "internalType": "uint256",
          "name": "amount",
          "type": "uint256"
        },
        {
          "internalType": "uint256[]",
          "name": "lockIndexes",
          "type": "uint256[]"
        }
      ],
      "name": "transferFromWithLocks",
      "outputs": [
        {
          "internalType": "bool",
          "name": "",
          "type": "bool"
        }
      ],
      "stateMutability": "nonpayable",
      "type": "function"
    },
    {
      "inputs": [
        {
          "internalType": "address",
          "name": "newOwner",
          "type": "address"
        }
      ],
      "name": "transferOwnership",
      "outputs": [],
      "stateMutability": "nonpayable",
      "type": "function"
    },
    {
      "inputs": [
        {
          "internalType": "address",
          "name": "to",
          "type": "address"
        },
        {
          "internalType": "uint256",
          "name": "amount",
          "type": "uint256"
        },
        {
          "internalType": "uint256[]",
          "name": "lockIndexes",
          "type": "uint256[]"
        }
      ],
      "name": "transferWithLocks",
      "outputs": [
        {
          "internalType": "bool",
          "name": "",
          "type": "bool"
        }
      ],
      "stateMutability": "nonpayable",
      "type": "function"
    },
    {
      "inputs": [
        {
          "internalType": "uint256[]",
          "name": "lockIndexes",
          "type": "uint256[]"
        }
      ],
      "name": "unlockZKN",
      "outputs": [],
      "stateMutability": "nonpayable",
      "type": "function"
    },
    {
      "inputs": [
        {
          "internalType": "address",
          "name": "",
          "type": "address"
        },
        {
          "internalType": "uint256",
          "name": "",
          "type": "uint256"
        }
      ],
      "name": "userLocks",
      "outputs": [
        {
          "internalType": "uint256",
          "name": "amount",
          "type": "uint256"
        },
        {
          "internalType": "uint256",
          "name": "lockEnd",
          "type": "uint256"
        },
        {
          "internalType": "bool",
          "name": "claimed",
          "type": "bool"
        },
        {
          "internalType": "uint256",
          "name": "tokenId",
          "type": "uint256"
        }
      ],
      "stateMutability": "view",
      "type": "function"
    },
    {
      "inputs": [
        {
          "internalType": "address",
          "name": "",
          "type": "address"
        }
      ],
      "name": "userTotalZKNLocked",
      "outputs": [
        {
          "internalType": "uint256",
          "name": "",
          "type": "uint256"
        }
      ],
      "stateMutability": "view",
      "type": "function"
    }
  ],
  "bytecode": "0x60806040523461038057604080519081016001600160401b0381118282101761029357604090815260088252675a656e696b616e6560c01b602083015280519081016001600160401b038111828210176102935760405260038152622d25a760e91b602082015281516001600160401b03811161029357600354600181811c91168015610376575b602082101461027557601f8111610313575b50602092601f82116001146102b257928192935f926102a7575b50508160011b915f199060031b1c1916176003555b80516001600160401b03811161029357600454600181811c91168015610289575b602082101461027557601f8111610212575b50602091601f82116001146101b2579181925f926101a7575b50508160011b915f199060031b1c1916176004555b33156101945760058054336001600160a01b03198216811790925560405191906001600160a01b03167f8be0079c531659141344cd1fd0a4f28419497f9722a3daafe3b4186f6b6457e05f80a360016006556009805460ff60a01b1916905561178a90816103858239f35b631e4fbdf760e01b5f525f60045260245ffd5b015190505f80610114565b601f1982169260045f52805f20915f5b8581106101fa575083600195106101e2575b505050811b01600455610129565b01515f1960f88460031b161c191690555f80806101d4565b919260206001819286850151815501940192016101c2565b60045f527f8a35acfbc15ff81a39ae7d344fd709f28e8600b4aa8c65c6b64bfe7fe36bd19b601f830160051c8101916020841061026b575b601f0160051c01905b81811061026057506100fb565b5f8155600101610253565b909150819061024a565b634e487b7160e01b5f52602260045260245ffd5b90607f16906100e9565b634e487b7160e01b5f52604160045260245ffd5b015190505f806100b3565b601f1982169360035f52805f20915f5b8681106102fb57508360019596106102e3575b505050811b016003556100c8565b01515f1960f88460031b161c191690555f80806102d5565b919260206001819286850151815501940192016102c2565b60035f527fc2575a0e9e593c00f959f8c92f12db2869c3395a3b0502d05e2516446f71f85b601f830160051c8101916020841061036c575b601f0160051c01905b8181106103615750610099565b5f8155600101610354565b909150819061034b565b90607f1690610087565b5f80fdfe6080806040526004361015610012575f80fd5b5f3560e01c90816306fdde03146110a457508063095ea7b314610ffc57806318160ddd14610fdf57806323b872dd14610f9b578063313ce56714610f8057806340c10f1914610ede5780634428cc2614610eaa57806352908d7414610d185780635696f1c014610ce057806370a0823114610ca9578063715018a614610c4e5780637f74ac1514610c265780638da5cb5b14610bfe57806395d89b4114610afa57806396a95648146106ef5780639a064d061461069d5780639dc29fac146105d9578063a9059cbb1461059d578063aa33fedb14610523578063b0128d3f146104eb578063b832dcf814610362578063c4d66de81461029c578063d43bd7ec1461023f578063d511675514610214578063dd62ed3e146101c45763f2fde38b1461013a575f80fd5b346101c05760203660031901126101c057610153611186565b61015b61172d565b6001600160a01b031680156101ad57600580546001600160a01b0319811683179091556001600160a01b03167f8be0079c531659141344cd1fd0a4f28419497f9722a3daafe3b4186f6b6457e05f80a3005b631e4fbdf760e01b5f525f60045260245ffd5b5f80fd5b346101c05760403660031901126101c0576101dd611186565b6101e561119c565b6001600160a01b039182165f908152600160209081526040808320949093168252928352819020549051908152f35b346101c05760203660031901126101c0576020610237610232611186565b611501565b604051908152f35b346101c05760603660031901126101c057610258611186565b6044359067ffffffffffffffff82116101c05761028661027f6102919336906004016111b2565b36916114a1565b90602435903361153c565b602060405160018152f35b346101c05760203660031901126101c0576102b5611186565b6102bd61172d565b6009549060ff8260a01c16610327576001600160a01b031680156102f3576001600160a81b031990911617600160a01b17600955005b60405162461bcd60e51b815260206004820152600c60248201526b5a65726f206164647265737360a01b6044820152606490fd5b60405162461bcd60e51b8152602060048201526013602482015272105b1c9958591e481a5b9a5d1a585b1a5e9959606a1b6044820152606490fd5b346101c05760603660031901126101c05761037b611186565b602435604435918282116104dc576001600160a01b03165f8181526007602052604090205490929081116104cd57816103b3916112a3565b906103bd8261124e565b926103cb604051948561122c565b828452601f196103da8461124e565b015f5b81811061049e5750505f5b83811061045757846040518091602082016020835281518091526020604084019201905f5b81811061041b575050500390f35b9193509160206080600192606087518051835284810151858401526040810151151560408401520151606082015201940191019184939261040d565b600190825f52600760205261048261047c60405f2061047684886113b5565b906111e3565b5061137e565b61048c82886114ed565b5261049781876114ed565b50016103e8565b6020906040516104ad81611210565b5f81525f838201525f60408201525f6060820152828289010152016103dd565b630655dc2560e01b5f5260045ffd5b63561ce9bb60e01b5f5260045ffd5b346101c05760203660031901126101c0576001600160a01b0361050c611186565b165f526007602052602060405f2054604051908152f35b346101c05760403660031901126101c05761053c611186565b6001600160a01b03165f908152600760205260409020805460243591908210156101c05760809161056c916111e3565b50805490600181015490600360ff600283015416910154916040519384526020840152151560408301526060820152f35b346101c05760403660031901126101c0576102916105b9611186565b604051906105c860208361122c565b5f82525f368137602435903361153c565b346101c05760403660031901126101c0576105f2611186565b6024359061060b60018060a01b03600954163314611266565b6001600160a01b0316801561068a57805f525f60205260405f2054828110610671576020835f947fddf252ad1be2c89b69c2b068fc378daa952ba7f163c4a11628f55a4df523b3ef938587528684520360408620558060025403600255604051908152a3005b9063391434e360e21b5f5260045260245260445260645ffd5b634b637e8f60e11b5f525f60045260245ffd5b346101c05760803660031901126101c0576106b6611186565b6106be61119c565b6064359167ffffffffffffffff83116101c0576106e561027f6102919436906004016111b2565b916044359161153c565b346101c05760803660031901126101c057610708611186565b600954604435916064359160243591906001600160a01b031661072c338214611266565b8261080f575b5060018060a01b031690815f525f6020528360405f2054106108005760807f57dfc0d0ce6b1551ace6ba23ccdc4e57a7d252091089a77fb286745fda252e6a91602095845f52600787526107e160405f205496865f52600789526107c360405f2061079d83426113b5565b90604051916107ab83611210565b8683528c8301525f6040830152866060830152611434565b865f526008895260405f206107d98482546113b5565b9055426113b5565b90604051928352868884015260408301526060820152a2604051908152f35b63b3fa5d7160e01b5f5260045ffd5b60206004916040519283809263d9ce076d60e01b82525afa908115610aad575f91610ab8575b5060405163de7fe3e760e01b815260048101849052905f90829060249082906001600160a01b03165afa908115610aad575f91610913575b5084156109045760c081015184106108c95760e00151831161088f5784610732565b60405163132e0b2160e31b81526020600482015260116024820152704475726174696f6e20746f6f206c6f6e6760781b6044820152606490fd5b60405163132e0b2160e31b8152602060048201526012602482015271111d5c985d1a5bdb881d1bdbc81cda1bdc9d60721b6044820152606490fd5b63617ab12d60e11b5f5260045ffd5b90503d805f833e610924818361122c565b81019080820360a081126101c0576080136101c05760405161094581611210565b81518152610955602083016113c2565b60208201526040820151604082015260606109718184016113d1565b91015260808101519067ffffffffffffffff82116101c057016101a0818303126101c057604051916101a0830183811067ffffffffffffffff821117610a9957604052815167ffffffffffffffff81116101c057816109d19184016113de565b83526109df602083016113c2565b602084015260408201519067ffffffffffffffff82116101c057610a049183016113de565b6040830152610a15606082016113d1565b6060830152610a26608082016113d1565b608083015260a081015160a083015260c081015160c083015260e081015160e08301526101008101516101008301526101208101519063ffffffff821682036101c0576101809161012084015261014081015161014084015261016081015161016084015201516101808201528561086d565b634e487b7160e01b5f52604160045260245ffd5b6040513d5f823e3d90fd5b90506020813d602011610af2575b81610ad36020938361122c565b810103126101c057516001600160a01b03811681036101c0575f610835565b3d9150610ac6565b346101c0575f3660031901126101c0576040515f6004548060011c90600181168015610bf4575b602083108114610be057828552908115610bbc5750600114610b5e575b610b5a83610b4e8185038261122c565b6040519182918261115c565b0390f35b91905060045f527f8a35acfbc15ff81a39ae7d344fd709f28e8600b4aa8c65c6b64bfe7fe36bd19b915f905b808210610ba257509091508101602001610b4e610b3e565b919260018160209254838588010152019101909291610b8a565b60ff191660208086019190915291151560051b84019091019150610b4e9050610b3e565b634e487b7160e01b5f52602260045260245ffd5b91607f1691610b21565b346101c0575f3660031901126101c0576005546040516001600160a01b039091168152602090f35b346101c0575f3660031901126101c0576009546040516001600160a01b039091168152602090f35b346101c0575f3660031901126101c057610c6661172d565b600580546001600160a01b031981169091555f906001600160a01b03167f8be0079c531659141344cd1fd0a4f28419497f9722a3daafe3b4186f6b6457e08280a3005b346101c05760203660031901126101c0576001600160a01b03610cca611186565b165f525f602052602060405f2054604051908152f35b346101c05760203660031901126101c0576001600160a01b03610d01611186565b165f526008602052602060405f2054604051908152f35b346101c05760203660031901126101c05760043567ffffffffffffffff81116101c057610d499036906004016111b2565b600260065414610e9b5760026006558015610e8c5760328111610e7d575f915f5b82811015610e1b578060051b820135335f52600760205260405f2054811015610e0c57610da290335f52600760205260405f206111e3565b50610dac8161137e565b805115159081610dff575b81610df0575b50610dcc575b50600101610d6a565b93906002610dde6001938754906113b5565b9501805460ff19168317905590610dc3565b60209150015142101586610dbd565b6040810151159150610db7565b6303f6666760e51b5f5260045ffd5b838015610e6e57335f52600860205260405f20610e398282546112a3565b90556040519081527f9e91543a0a1b756d1e8ee3418c19a17039c361eb963f01e48e7c2912d1690c0d60203392a26001600655005b63e8dafed760e01b5f5260045ffd5b637a6dcc2760e11b5f5260045ffd5b63b3da792d60e01b5f5260045ffd5b633ee5aeb560e01b5f5260045ffd5b346101c05760603660031901126101c057610ec3611186565b60443580151581036101c057610edc91602435906112c4565b005b346101c05760403660031901126101c057610ef7611186565b60243590610f1060018060a01b03600954163314611266565b6001600160a01b0316908115610f6d577fddf252ad1be2c89b69c2b068fc378daa952ba7f163c4a11628f55a4df523b3ef602082610f515f946002546113b5565b60025584845283825260408420818154019055604051908152a3005b63ec442f0560e01b5f525f60045260245ffd5b346101c0575f3660031901126101c057602060405160048152f35b346101c05760603660031901126101c057610291610fb7611186565b610fbf61119c565b9060405191610fcf60208461122c565b5f83525f3681376044359161153c565b346101c0575f3660031901126101c0576020600254604051908152f35b346101c05760403660031901126101c057611015611186565b602435903315611091576001600160a01b031690811561107e57335f52600160205260405f20825f526020528060405f20556040519081527f8c5be1e5ebec7d5bd14f71427d1e84f3dd0314c0f7b2291e5b200ac8c7c3b92560203392a3602060405160018152f35b634a1406b160e11b5f525f60045260245ffd5b63e602df0560e01b5f525f60045260245ffd5b346101c0575f3660031901126101c0575f6003548060011c90600181168015611152575b602083108114610be057828552908115610bbc57506001146110f457610b5a83610b4e8185038261122c565b91905060035f527fc2575a0e9e593c00f959f8c92f12db2869c3395a3b0502d05e2516446f71f85b915f905b80821061113857509091508101602001610b4e610b3e565b919260018160209254838588010152019101909291611120565b91607f16916110c8565b602060409281835280519182918282860152018484015e5f828201840152601f01601f1916010190565b600435906001600160a01b03821682036101c057565b602435906001600160a01b03821682036101c057565b9181601f840112156101c05782359167ffffffffffffffff83116101c0576020808501948460051b0101116101c057565b80548210156111fc575f5260205f209060021b01905f90565b634e487b7160e01b5f52603260045260245ffd5b6080810190811067ffffffffffffffff821117610a9957604052565b90601f8019910116810190811067ffffffffffffffff821117610a9957604052565b67ffffffffffffffff8111610a995760051b60200190565b1561126d57565b60405162461bcd60e51b815260206004820152600e60248201526d139bdd08185d5d1a1bdc9a5e995960921b6044820152606490fd5b919082039182116112b057565b634e487b7160e01b5f52601160045260245ffd5b9190916112dc60018060a01b03600954163314611266565b6001600160a01b03165f81815260076020526040902054909290811015611379577f9e91543a0a1b756d1e8ee3418c19a17039c361eb963f01e48e7c2912d1690c0d91611335602092855f526007845260405f206111e3565b5080549160028201600160ff19825416179055855f526008845260405f2061135e8482546112a3565b905515611370575b50604051908152a2565b5f90555f611366565b505050565b9060405161138b81611210565b606060038294805484526001810154602085015260ff600282015416151560408501520154910152565b919082018092116112b057565b519061ffff821682036101c057565b519081151582036101c057565b81601f820112156101c05780519067ffffffffffffffff8211610a995760405192611413601f8401601f19166020018561122c565b828452602083830101116101c057815f9260208093018386015e8301015290565b805468010000000000000000811015610a9957611456916001820181556111e3565b91909161148e5760608160039251845560208101516001850155600284016040820151151560ff801983541691161790550151910155565b634e487b7160e01b5f525f60045260245ffd5b9291906114ad8161124e565b936114bb604051958661122c565b602085838152019160051b81019283116101c057905b8282106114dd57505050565b81358152602091820191016114d1565b80518210156111fc5760209160051b010190565b6001600160a01b03165f90815260208181526040808320546008909252909120548082111561153657611533916112a3565b90565b50505f90565b6001600160a01b0381169492939091851561068a576001600160a01b0316938415610f6d57855f525f60205260405f20548181106117145790806115dc92885f525f6020520360405f2055855f525f60205260405f2081815401905585877fddf252ad1be2c89b69c2b068fc378daa952ba7f163c4a11628f55a4df523b3ef6020604051858152a36115ce5f94611501565b80821161170e5750806112a3565b80151580611704575b156116fc576115f483836114ed565b51925f1981146112b05760010192865f52600760205260405f20548110156116f55761162b90875f52600760205260405f206111e3565b50908154801580156116e7575b6116de576116ce9291908181116116d657915b875f52600760205261168a60405f2060018301549060038401546040519261167284611210565b87845260208401525f60408401526060830152611434565b6116958382546112a3565b9055875f52600860205260405f206116ae8382546112a3565b9055865f52600860205260405f206116c78382546113b5565b90556112a3565b925b926115dc565b50809161164b565b509390506116d0565b5060ff600284015416611638565b50926116d0565b505050915050565b50815183106115e5565b906112a3565b8663391434e360e21b5f5260045260245260445260645ffd5b6005546001600160a01b0316330361174157565b63118cdaa760e01b5f523360045260245ffdfea26469706673582212206d5439233348f2c8e4416ca148c61dc7c059722578f1fcdc495c8d8777bb4a8d64736f6c634300081c0033",
  "linkReferences": {},
  "deployedLinkReferences": {},
  "immutableReferences": {},
  "inputSourceName": "project/contracts/Zenikane.sol",
  "buildInfoId": "solc-0_8_28-6b5e46c1711daa6bbfc17856a2cb3ed9f4d9b7c9"
}